:020000040000FA
:10000000E80B002069110000534000009911000026
:100010009911000099110000991100009911000038
:10002000000000000000000000000000AD0F000014
:100030009911000000000000650F0000513F000012
:1000400029110000291100002911000029110000C8
:1000500029110000291100002911000029110000B8
:1000600029110000291100002911000029110000A8
:100070002911000029110000291100002911000098
:100080002911000029110000291100002911000088
:100090002911000029110000291100002911000078
:1000A0002911000029110000291100002911000068
:1000B0002911000029110000291100002911000058
:1000C0002911000029110000291100002911000048
:1000D0002911000029110000291100002911000038
:1000E0002911000029110000291100002911000028
:1000F0002911000029110000291100002911000018
:100100002911000029110000291100002911000007
:1001100029110000291100002911000029110000F7
:1001200029110000291100002911000029110000E7
:1001300029110000291100002911000029110000D7
:100140002911000000000000000000000000000075
:10015000000000000000000000000000000000009F
:10016000000000000000000000000000000000008F
:10017000000000000000000000000000000000007F
:10018000000000000000000000000000000000006F
:10019000000000000000000000000000000000005F
:1001A000000000000000000000000000000000004F
:1001B000000000000000000000000000000000003F
:1001C000000000000000000000000000000000002F
:1001D000000000000000000000000000000000001F
:1001E000000000000000000000000000000000000F
:1001F00000000000000000000000000000000000FF
:10020000DEE61E284CBBCE8F025B00003C000000E7
:10021000008000000100000000000000000000005D
:10022000FFFF02910000000000000000000000003D
:1002300000000000000000000000000053B94AB9AF
:10024000002908BF00281CBF4FF0FF314FF0FF30DE
:1002500000F07CB9ADF1080C6DE904CE00F006F8B1
:10026000DDF804E0DDE9022304B070472DE9F04732
:100270008C46089D04468A46002B4AD18A4217467E
:1002800062D9B2FA82F64EB1C6F1200E01FA06F337
:10029000B740B44020FA0EFE4EEA030A4FEA174870
:1002A000230C1FFA87F9BAFBF8FE08FB1EAA0EFB07
:1002B00009F243EA0A439A420BD9FB180EF1FF31C7
:1002C0002CBF012000209A4202D9002800F02A8188
:1002D0008E469A1AA3B2B2FBF8F008FB102200FB7C
:1002E00009F943EA0244A14507D93C1900F1FF335B
:1002F00002D2A14500F210811846A4EB090440EA9D
:100300000E4000211DB1F4400023C5E90043BDE8C3
:10031000F0878B4208D9002D00F0F2800021C5E95A
:10032000000C0846BDE8F087B3FA83F100294ED1EE
:100330006345C0F0E880824240F2E5800846002D27
:10034000E5D0C5E9004AE2E702B9FFDEB2FA82F67B
:10035000002E40F099808B1A4FEA124E1FFA82F855
:1003600001214FEA144CB3FBFEF20EFB123008FBE6
:1003700002F94CEA004CE14508D917EB0C0C02F1EC
:10038000FF3302D2E14500F2CA801A46ACEB090CF9
:10039000A3B2BCFBFEF00EFB10CC08FB00F843EA56
:1003A0000C44A0450ED93C1900F1FF332CBF4FF08F
:1003B000010C4FF0000CA04503D9BCF1000F00F078
:1003C000A8801846A4EB080440EA02409AE7C1F16D
:1003D00020048B4002FA01FE0CFA01F6E24020FAFA
:1003E00004F72CFA04FC00FA01F813433E431F0CF7
:1003F000320C1FFA83F9BCFBF7F007FB10CC00FBB3
:1004000009FA42EA0C4CE24508D913EB0C0C00F156
:10041000FF3202D2E24500F289801046ACEB0A0CB2
:10042000B6B2BCFBF7FA07FB1ACC0AFB09F946EA9D
:100430000C42914506D99A180AF1FF3601D291452E
:100440007AD8B2464AEA0040A2EB0902A0FB0E6746
:10045000BA42B446B94602D307D1B04505D2B6EB8D
:100460000E0C67EB030301389946002D6BD0B8EBF7
:100470000C0362EB090202FA04F4CB40CA400021EB
:100480001C43C5E9004242E7B740C6F1200201FA29
:1004900006F3B44021FA02FC4FEA174E20FA02F2AA
:1004A0001FFA87F8BCFBFEF11A430EFB11CC01FBCF
:1004B00008F0130C43EA0C4C604507D917EB0C0C01
:1004C00001F1FF3301D2604533D81946ACEB000C83
:1004D00092B2BCFBFEF00EFB10CC00FB08F342EA2C
:1004E0000C4C634507D917EB0C0C00F1FF3201D21D
:1004F000634525D81046ACEB030340EA014130E7E1
:100500002946284603E7841A6CEB030301209A4628
:1005100015E702383C4455E702383C44EDE6023A20
:10052000BC4433E7AEF1020E3B44D2E602389C44B1
:1005300074E70239BC44C9E7AAF1020A1A4481E708
:100540000238BC44D7E72946E1E600BF704700BF48
:100550002DE9E04F2746A046A146A246A346A44661
:100560002DED108B4FF0000545EC185B45EC195A4A
:1005700045EC1A5A45EC1B5A45EC1C5A45EC1D5AE1
:1005800045EC1E5A45EC1F5AF1EE105A4FF66076B4
:10059000C0F6FF763540E1EE105A84F30088254618
:1005A0002646A447BDEC108BBDE8E08F0B680133F5
:1005B0000B60014B1B681847000000202DE9F04F2D
:1005C00085B00E9C9B46012CB8BF0124012B0CBFAB
:1005D0003023202316468246884601250A2700221A
:1005E000DFF86C900293B6FBF9F301930AB9B145B9
:1005F0001CD8019B414603F13000D0470122013550
:10060000019B013F09FB13660A23012FB9FBF3F994
:10061000E9D1414606F13000D047BBF1030F02D1CA
:10062000641B002C0EDC05B0BDE8F08FBC42E7DB9C
:10063000BBF1020FE4D84146029803920135D0473E
:10064000039ADDE741462020D047013CE9E700BF9F
:1006500000CA9A3B014B1860704700BF00000020A1
:10066000002313B502AC44F8043D02460B46034890
:10067000214603F080F902B010BD00BFAD050000B7
:100680004FF02002EFF3118382F31188BFF36F8FD5
:100690000121044AC2F8401583F31188BFF36F8F1C
:1006A000002070470090035020B1034B800143F0BD
:1006B00001031847704700BF1048000010B50748F5
:1006C00001F00CFB064C074B1860204601F0A4F823
:1006D0002046FFF7BFFF002010BD00BF984A000072
:1006E000E9060000500100200A2838B50446074DED
:1006F00004D1286883680D215B689847286883685F
:10070000E1B25B689847204638BD00BF5001002029
:10071000F8B50C24114D0646EB6804FB00340123A8
:1007200063724FF02003EFF3118183F31188BFF35D
:100730006F8F23682BB160681A688342226008BFFC
:10074000626081F31188BFF36F8F03B9F8BDD3E9FD
:10075000017231462846B847E3E700BF9400002005
:1007600008B5114B1A686AB14FF05022D2F8042331
:10077000D10707D500221A600C4BDB68587A08B9FC
:10078000FFF7C6FF0A4B1A6862B14FF05022D2F849
:100790000423920706D5002201201A60BDE8084014
:1007A000FFF7B6BF08BD00BF005100509400002005
:1007B00004510050821C084B22F07F42C3F84025B0
:1007C000D3F80425904200D17047D3F80405821C69
:1007D00022F07F42F2E700BF005001500022064B9A
:1007E0001A60064AD3F800041368C01A20F07F404C
:1007F0000344136002F03CB9405101506C010020E9
:1008000038B5144801F06AFA00B3836800241B6805
:10081000012198474FF400120F4D104BC5F80845C1
:100820001C600F4B0121C3F880214FF48033224616
:10083000C5F80433152000F0D9FB152000F0C6FBE5
:1008400001232046074A13602B6038BD4FF0FF306C
:10085000FBE700BF5F4C00000050015040510150C9
:1008600000E100E008500150F8B52E492E4B0C680D
:10087000D3F804352D4A1B1B23F07F43B0F1FF3F13
:1008800008BF1046934237D8013820EAE070904202
:10089000A8BF10460133034424480027834294BF75
:1008A000E41824184FF480301F4B214EC3F808037E
:1008B000D3F80415D3F8402521F07F45521A22F0D1
:1008C0007F42012A3760C3F84055C3F844031D46F0
:1008D00003D10F2003F0F0FD37604FF40012154BE9
:1008E000C3F88021D5F80405231A23F07F43012B98
:1008F00004D1FFF75FFF0EE00020CBE724F07F4339
:10090000C5F84035D5F80405241A023C24F07F448C
:10091000B4F5000FEDD24FF48032034BC3F804233B
:10092000F8BD00BF6C01002000500150FFFF7F00A8
:100930004051015000E100E04FF02002EFF311833D
:1009400082F31188BFF36F8F064AD2F80405064A76
:100950001268801A20F07F4083F31188BFF36F8FF5
:10096000704700BF005001506C010020F7B51C46D5
:100970000D46002814BF4FF400534FF40043204E9F
:10098000954232D302FB03F0013A00904B431D48DD
:1009900003F069F91C4B14F0100F1C491C4808BFE8
:1009A000194603F060F914F0040F14BF72212D21D1
:1009B000184803F058F914F0020F14BF77212D21C5
:1009C000144803F050F914F0010F0CBF2D217821C9
:1009D000104803F048F96C210E4803F044F90E4822
:1009E00003B0BDE8F04003F03EB928B105F5E0776B
:1009F00046F827400135C3E705F5C077F8E700BFA3
:100A000000300050BE4A0000B24A0000A94A00006F
:100A1000C84B0000D84A0000134E000008B543B28E
:100A2000002B0CDB012200F01F018A405B091049FA
:100A3000203341F82320BFF34F8FBFF36F8F830024
:100A400003F1A04303F540533128D3F8002806D022
:100A5000002A07DA02F00302023A012A02D8054A04
:100A6000C3F80028002103F0C5FA002008BD00BF2C
:100A700000E100E00001008030B54FF440444CF24A
:100A8000040585B04FF440412C4803F0ECF8216890
:100A90002B4803F0E8F829682A4803F0E4F810220C
:100AA0000021684603F068FB2368684600930294BF
:100AB00000F03CFE012000F069FE002000F052FE34
:100AC000002000F077FE0121002000F091FE00F0F0
:100AD00085FE2C681C4803F0C6F80820FFF79EFF2F
:100AE00024F00104BFF34F8FBFF36F8F64086400DD
:100AF00020462146224623469FED140ADFED130AC5
:100B00009FED121ADFED111A9FED102ADFED0F2A6B
:100B10009FED0E3ADFED0D3A9FED0C4ADFED0B4AEB
:100B20009FED0A5ADFED095A9FED086ADFED076A6B
:100B30009FED067ADFED057AFFF70AFDDF4B000037
:100B4000F64B00000B4C0000294C00000000000098
:100B50002DE9F8433B4803F086F8002140F21713D3
:100B600008460122FFF702FF40F20713202201216D
:100B70000020FFF7FBFE344803F075F8334B344A8E
:100B8000C3F3C431C3F30E03C3F50043C3F34313EC
:100B9000C2F80015C2F80435D2F80015D2F80425C1
:100BA0002C48520103F05FF8274803F05CF803F08B
:100BB000D1F9014610B1284803F055F80024274820
:100BC00003F051F840F21713082200210120FFF72B
:100BD000CDFE1F4D40F20713202208210120FFF710
:100BE000C5FE194803F03FF8C5F880441C4803F0DF
:100BF0003AF8DFF88480C5F8C044DFF88090194DDA
:100C000005EBC406777955F83420002F14BF43460E
:100C10004B462146144803F026F857B913480134CF
:100C200003F021F81A2CEBD10748BDE8F84303F094
:100C30001AB83079FFF7F2FE08B10D48EFE70D481A
:100C4000EDE700BFE64A0000134E0000E07F000021
:100C5000003000500A4B0000504B0000804B000059
:100C6000A24B00002C480000BE4B0000CB4B000004
:100C7000D24B0000DA4B0000DB4A0000B64A00000D
:100C800010B500284BD0002A49D0264B99423CD9B8
:100C9000541803F61D239C423AD803F040FA002072
:100CA000BDE81040714672467346B7EE000AF7EE93
:100CB000000AB7EE001AF7EE001AB7EE002AF7EEB8
:100CC000002AB7EE003AF7EE003AB7EE004AF7EE28
:100CD000004AB7EE005AF7EE005AB7EE006AF7EE98
:100CE000006AB7EE007AF7EE007A8EF3008C10B44B
:100CF000F1EE10CA4FF66074C0F6FF740CEA040CF3
:100D0000E1EE10CA10BCF4467447074B994203D970
:100D1000064B54189C42C0D94FF0FF30C0E76FF02B
:100D20001500BDE70302FF002F01FF003801FF009F
:100D30002DE9F04F824685B08946002951D0002622
:100D4000DFF8B0B0DFF8B08001AF5BF8264098E87C
:100D50000700544487E807000C223946204603F078
:100D6000B7F9054608B9002C3ED10136052EECD165
:100D70006FF00D05284605B0B7EE000AF7EE000A41
:100D8000B7EE001AF7EE001AB7EE002AF7EE002AC7
:100D9000B7EE003AF7EE003AB7EE004AF7EE004A37
:100DA000B7EE005AF7EE005AB7EE006AF7EE006AA7
:100DB000B7EE007ABDE8F04F714672467346F7EE23
:100DC000007A8EF3008C10B4F1EE10CA4FF6607406
:100DD000C0F6FF740CEA040CE1EE10CA10BCF44635
:100DE00074476FF01505C5E73C222146484603F0DD
:100DF00096F9BFE7FC480000C0470000014802F038
:100E0000C1B800BF1049000008B530B143683BB11C
:100E1000006801F067F9002008BD6FF4E040FBE7CF
:100E20000048F9E7EA8FFFFF08B568B1436873B17E
:100E300000684FF0FF324FF0FF3301F0DBF800287D
:100E4000044808BF002008BD6FF4E040FBE70248FB
:100E5000F9E700BFE98FFFFFEA8FFFFF38B50446CF
:100E600018B90B4B0B485B689847656855B115F08E
:100E70000205206807D10146074801F091F8256076
:100E80000023636038BD1422002103F075F9F7E7F1
:100E900068000020504D00007001002010B504468D
:100EA00018B9144B14485B6898476368CBB923683A
:100EB000BBB94FF0FF324FF0FF3321460F4801F02E
:100EC0003BF808B923681BB90A4B0D485B68984783
:100ED00014220021206803F04FF9636843F00203F5
:100EE0006360206803F012FA636843F001036360F3
:100EF00010BD00BF68000020504D000070010020B0
:100F0000764D000008B5064940231422054803F039
:100F1000E2F9BDE808400449044802F06BB800BF9C
:100F20008C010020700100202849000018490000B1
:100F3000094A0A4993680968D866196708494B68DD
:100F400043F080534B60002383F31188BFF36F8F0E
:100F50009368186F704700BF880700209C49000005
:100F600000ED00E00F498A684FF030001044EFF3C5
:100F7000098C80E8F01F202080F31188BFF36F8F69
:100F8000094F4FF000664A6A8A603E60D06E0023C7
:100F9000D36680F3118802F1300090E8F01F8CF3E3
:100FA000098870478807002004ED00E01EF0040F58
:100FB0000CBFEFF30880EFF30980816911F8021C80
:100FC0000229FFD001B503F040F801BD43B2002B68
:100FD00008DB012200F01F0002FA00F0024A5B0960
:100FE00042F82300704700BF00E100E043B2002B4D
:100FF00001F10101A8BF03F160434FEA4111B8BFFD
:10100000054BC9B2ABBF03F5614300F00F0083F895
:1010100000131954704700BF14ED00E0C0E9181226
:101020000A44203A22F007021360009B07495360EC
:10103000019B21F001019360029B9161D3604FF00D
:101040008073D36100230265C3667047813C000052
:10105000F8B51D4606460C4617460023E1EE103A49
:1010600000F0F4F9084B3C4424F007049E60284645
:1010700084F30988002163B681F31188BFF36F8F71
:101080000022002302F0FCFD880700200149102205
:101090000A60704710ED00E072B6404080F311889E
:1010A000BFF36F8FBFF34F8F30BF62B6BFF36F8F49
:1010B000704700BF30BFFFF7FDBF00BF174A08B53C
:1010C000174B22F07F029A60BFF34F8FBFF36F8FF1
:1010D000D3F8882022F47002C3F88820D3F888203F
:1010E00042F4A002C3F888200E4A536823F040431C
:1010F0005360BFF34F8FBFF36F8F0023E1EE103AC1
:10110000EFF3148323F0040383F3148800F024FE28
:1011100000F02CFE00F068F900F066FE0000000010
:1011200000ED00E030EF00E001B572B60B4A106A46
:1011300000281EBF0021116203F0CBF862B6EFF366
:101140000580A0F110004FEAC0000549014409C91B
:101150009847BDE801400349084700008807002080
:10116000B8450000A913000002F038FE202080F3EB
:10117000118808484FF40061401880F30988EFF3A4
:1011800014800221084380F31488BFF36F8FFFF7A8
:1011900095FF0000280D0020EFF30880EFF3098190
:1011A000724601B500F06CF801BD00BF0C4B9A6AA5
:1011B0009A6A9A6A920708D55A6B9A6A120604D5F7
:1011C00018B19A6A22F080029A6200209A6A9A6A9A
:1011D0009A6A9A6A42F0FF029A620870704700BFEA
:1011E00000ED00E00D4B9A6A9A6A9A6A920508D55A
:1011F0009A6B9A6A120404D518B19A6A22F40042D2
:101200009A6200209A6A9A6AD205044A58BF9B6A79
:10121000936A43F47F4393620870704700ED00E0E7
:10122000074B00209A6A9A6A9A6A9A6A9A6A9A6A34
:101230009A6A9A6A6FEA02426FEA12429A627047A9
:1012400000ED00E00D4B9A695A695A69D0070FD436
:101250005A6991070CD45A69520709D45A69100780
:1012600006D45A69D10603D45A69920658BF5A69FE
:101270005A6942F0FF025A61704700BFD0ED00E0AA
:10128000F0B5414B8BB05B680025C3F3080385F3D1
:101290001188BFF36F8F02F07F44B4F17F4F1FD1ED
:1012A00012F001041BD0560602F0080468D482F044
:1012B0000402C2F3800564B1EFF389860022033B88
:1012C0008DF80720042B4CD8DFE803F00C4D514279
:1012D0004900EFF38886F1E706460125EEE725464B
:1012E0002E46EBE7284BDA6A92073AD4DC6A14F010
:1012F000804408D028331B78EBB101200DF10701A1
:10130000FFF754FF04469DF8073093B92022314679
:1013100002A802F004FF099B6DB3C3F3080222B9CF
:101320006FEA53236FEA4323099302A9204602F090
:101330008AFE0BB0F0BD154B1B782BB101200DF1CF
:101340000701FFF74FFFDDE7114B1C88A7B217B16C
:10135000FFF766FFD6E70F4B5C69002CD3D0FFF791
:1013600071FF0024CFE70DF107010020C8E70DF160
:1013700007010020E5E723F4FF7323F00103D3E71F
:10138000002CA9D00E4699E700ED00E029ED00E021
:101390002AED00E0D0ED00E0024A536943F010036B
:1013A0005361704700ED00E0044B9968586A884229
:1013B00003D003494FF080520A607047880700202D
:1013C00004ED00E0BFF34F8F0549064BCA6802F4F5
:1013D000E0621343CB60BFF34F8F00BFFDE700BF58
:1013E00000ED00E00400FA05002320210348C218A4
:1013F0000133412B82F80013F9D1704700E100E07E
:1014000038B505464FF02003EFF3118483F31188BC
:10141000BFF36F8F01F056F80A4B9B68AB420BD1BC
:10142000094B5A68C2F3080212B92046FFF780FD43
:101430005A6842F080525A602046BDE8384002F0B7
:1014400077BF00BF8807002000ED00E010B50E4B0D
:1014500088B002930D4B0E4C03930E4B08A80493D7
:1014600002AB40F81C3D0C4A2346012100F002F972
:1014700000230793094B0121E41A05A8059306945C
:1014800000F002F908B010BD0000002000000000CC
:10149000000001200600010000000020480100209B
:1014A00010B50B680C7A23F01F0304F01F021A43D7
:1014B000CB68640923F01F03044943F0010343EAA6
:1014C00044038860CA600B6110BD00BF90ED00E06E
:1014D0002DE9F04F8046894614460027484D85B0D7
:1014E0004F4507DA58F827305E68C6B31F2E05D877
:1014F0006FF01504204605B0BDE8F08FF206F7D175
:10150000D3F800A01AF01F0FF2D1504602F0CAFD26
:10151000834606EB0A00013802F0C4FD8345E7D19B
:101520001BF1160FE4D0631E5B45E1DBC5F808B084
:10153000E86858F82710C5F808B02E6920F01F0099
:10154000D1E900321A44984246F01F0602F1FF3AF0
:1015500018D1564505D15FFA8BF002F081FD0137B5
:10156000BEE7C5F808B0EB6822F01F0203F01F03C6
:101570001A43EA60E0B202F073FD10F1160FB7D023
:10158000441CECE7C5F808B02A69013B23F01F03AF
:1015900002F01F0213435645E0B22B61EBD002F07C
:1015A0005FFD10F1160FA3D0C5F808B0EA689DF8EA
:1015B0000830013E62F304038DF808302B699DF872
:1015C00008205B0863F347128DF8082058F827209D
:1015D0000130D2E900321344009323F01F031E446C
:1015E000A6EB0A06C4B226F01F060F2C03963FF6A0
:1015F0007FAF20466946FFF753FF0134AFE700BFD6
:1016000090ED00E00522034B5A60BFF34F8FBFF30C
:101610006F8F704790ED00E0BFF35F8F0022014BAA
:101620005A60704790ED00E070B50E4D2E68102E98
:1016300015D80024FFF7F0FF0B4B0C4A1A63A642A3
:1016400005D10B4B1E70FFF7DDFF002070BD6968F0
:10165000204601EB0411FFF723FF0134EFE74FF0C1
:10166000FF30F3E73C49000090ED00E0AAFF4400A2
:10167000E407002010B5034C2278FFF729FF207003
:1016800010BD00BFE40700202DE9F74F894607464B
:101690000026DFF89080DFF890A0214C4E4519DA43
:1016A000D7F804B0BBF1000F36D03B681846019361
:1016B00002F0F8FC019B05460BEB0300013802F039
:1016C000F1FC1423854203FB06F306D06FF01502EC
:1016D00048F8032003B0BDE8F08F15F1160F48F865
:1016E0000350F7D09AF80020AA42F3DDA5604344E6
:1016F000A560E068197B60F3040119732169187B08
:10170000490861F347101873E26822F01F025A601B
:10171000226922F01F021A6101360C37BEE700BFB2
:1017200090ED00E08C060020E407002082680C4B5E
:101730009A60036883F38888436883F38988027B0F
:1017400002F00101EFF3948323F00303920748BFF3
:1017500043F0020309B143F0010383F39488704717
:1017600000ED02E0084AD36848B123F400531B049B
:101770001B0C43F0BF6343F40033D36070479BB24C
:1017800043F40053F5E700BF00ED00E0084AD368DA
:1017900040B19BB243F4804343F0BF6343F4003352
:1017A000D360704723F480431B041B0CF4E700BF95
:1017B00000ED00E0084AD36840B19BB243F0080353
:1017C00043F0BF6343F40033D360704723F0080352
:1017D0001B041B0CF4E700BF00ED00E0034AD2F845
:1017E0008C3043F44063C2F88C30704700ED00E069
:1017F000084B1A6818B142F001021A60704722F0D3
:1018000001021A601A6811B142F00202F5E722F0F3
:101810000202F2E7D0ED00E0014B1860704700BF14
:1018200024000020F0B54B79012B27D0032B22D1C7
:1018300010268B79032B1ED1CC7924B1012C1AD11F
:1018400043681B79BBB10A7912B1022A13D10E2267
:1018500047F6122743681D680B68BB426FD029D832
:10186000B3F5965F65D014D8B3F5167F4FD007D87F
:10187000B3F5967F78D06FF0220056E00026D8E7C7
:10188000B3F5966F52D0B3F5166FF4D14FF41D2314
:101890003FE0B3F5615F4ED004D8B3F5165FEAD1EF
:1018A000334B36E0B3F5964F47D0B3F5E14FE2D175
:1018B000304B2EE0B3F5E13F4AD012D84DF6C027A9
:1018C000BB423FD005D8B3F5164FD4D14FF41D031A
:1018D0001FE0B3F5614F38D0B3F5963FCBD1264B1F
:1018E00017E0B3F5E12F39D008D8B3F5613F32D016
:1018F000224FBB42BFD14FF080630AE0B3F5612FA6
:101900002FD01F4FBB42B6D14FF0805301E04FF4B0
:101910001C33C5F8243544EA06031343C5F86C3577
:10192000C36803C983E803000020F0BD4FF49E2381
:10193000EFE7144BEDE7144BEBE7144BE9E74FF4FB
:101940000003E6E74FF46503E3E74FF46B03E0E7DA
:101950004FF0EB73DDE74FF06C73DAE74FF0E863BD
:10196000D7E74FF07063D4E74FF4A033D1E700BF5F
:101970000050270000C0750000903A0190D003008D
:1019800040420F0000B0130000F03A0000A04E00EB
:101990000122F8B503270D46436809681C68214BEE
:1019A0008A40C6689A6001F1800243F822706A6832
:1019B000571C1EBF4FF0000C02F1800743F827C0F0
:1019C000C4F80C15A968C4F814254A1C15D0EA6897
:1019D000571C12D001274FF0030C97409F6002F173
:1019E000800743F827C04FF0000C01F1800743F84F
:1019F00027C0C4F80825C4F810153146FFF712FFB8
:101A000070B90823C4F800356B68013308D001238E
:101A10000C36C4F81001C4F83465C4F838352360B6
:101A2000F8BD00BF0025845030B585B005466C4632
:101A3000044B0FCB84E80F0021462846FFF7A8FF90
:101A400005B030BDCC47000030B585B005466C46CA
:101A5000044B0FCB84E80F0021462846FFF798FF80
:101A600005B030BDDC4700002DE9F0430025214CD6
:101A7000214E54F8048CDFF8889085B0A84503D82F
:101A8000002005B0BDE8F083636A96E807001F6890
:101A900001AB83E807000C221946384602F018FB18
:101AA00090B98FB1636A21691B681A6991420BD1A1
:101AB0009A69A169914207D8E169914204D96269A2
:101AC0005B6932EA03030AD0276A67B10B4802F068
:101AD000CAF8404080F311884FF0040002DFE36849
:101AE00001351C44CAE7484602F0BDF8636A1F602E
:101AF000F5E700BF3C020000EC470000B94D0000D4
:101B0000E24D0000064B1868043B1B68092B05D109
:101B1000013801288CBF0020012070470020704749
:101B20003401FF00054B1868043B1B68092B03D1E7
:101B3000431E584258417047002070473401FF004F
:101B40004E4A08B5136843F002031360FFF7DAFF4B
:101B500030B14FF050230022C3F81421C3F81821EC
:101B6000FFF7E0FF30B10123454A1360A2F63822A7
:101B7000C2F87835434B1B68092B07D1424B1B68D1
:101B8000022B02BF0122414BC3F87825FFF7CAFFA1
:101B900010B10E223E4B1A60FFF7B4FF20B10022B5
:101BA0003C4B1A6001225A600022D30003F57F03E8
:101BB000D3F80013013108D0D3F800130132D3F861
:101BC0000433B2F5807F0B60EFD1334BDA69D10774
:101BD0003BD5324B1946D3F80024012AFBD1C3F878
:101BE0000425D1F80034012BFBD12B4BDA69D20745
:101BF00008D5DA69294922F00102DA61D1F8002416
:101C0000012AFBD11A6A01320AD11A6A22F0FF02B4
:101C100042F020021A62214AD2F80034012BFBD193
:101C200000221E4BC3F80425D3F80024012AFBD15F
:101C3000BFF34F8F1A491B4BCA6802F4E06213438B
:101C4000CB60BFF34F8F00BFFDE71B6A0133C0D0ED
:101C5000134BD3F88C2042F44062C3F88C20D3F8A5
:101C6000882042F47002C3F88820BFF34F8FBFF37F
:101C70006F8F0D4B0D4A1A6008BD00BFD0ED00E01C
:101C8000384A00503001FF003401FF00004000508E
:101C9000E4AE03500C4700500080FF00009003505A
:101CA00000ED00E00400FA05480000200090D00399
:101CB000F8B50027084B53F82040013053F8206056
:101CC000A64200D8F8BDD4E900352846984708B1A7
:101CD00005B1AF600834F3E7884900000F4B70B5D9
:101CE00005461E460E4C9C4204D10D4CB44208D110
:101CF000002410E0A26812B12268AA420BD010346E
:101D0000F1E7A3680BB91034F0E72168284602F028
:101D1000D2F90028F7D1204670BD00BFE4000020B2
:101D20009400002008B50B4D4FF02002EFF3118313
:101D300082F31188BFF36F8F02F0D6FB01210446B6
:101D40000228D8BF084602F0DFFB2C62FFF7A4F997
:101D5000EAE700BF880700200248034A0021121A60
:101D600002F00ABA48010020E807002008B506483A
:101D7000064A0749121A02F0D2F9BDE80840054A9E
:101D80000549064802F0CBB90000002048010020B8
:101D9000604E000000000000604E000000000020C7
:101DA000012208B50B4B02201A70FFF781FF0A4A87
:101DB0000A490B4801F057FF0320FFF779FF00F0B5
:101DC0004DFD01F0C1FD074A137B23F0010313739E
:101DD00008BD00BFE5070020B14A0000204E00000A
:101DE000304E0000140700202DE98048DFF8F890FD
:101DF000A5B089F308880024E023344D4FF0010B8F
:101E000085F82230EC772C766C76AC76EC766B6AC3
:101E10002F4E43F4E0236B626B6ADFF8D0A043F4EB
:101E200000236B62AC63FFF7B7FAFFF72FF94FF0AF
:101E3000FF33AB62EB6240F20113264DADF8283060
:101E400007ABAB602046CDE91F44FFF731FF01200F
:101E5000FFF72EFFDFF8988000F058FC1E4B6E62F3
:101E60004FF480624146059330465346CDE9034B1B
:101E7000CDE90144009400F0C9FC737B304623F0A7
:101E80000403737302F070FA0F23144FCDE9024379
:101E90004FF4A072124B13493846CDE904B4CDE992
:101EA000004400F0B3FC7B7BEF6023F004037B7302
:101EB00005F11803C5E906332C75C5F8049053469F
:101EC0004FF4806241463046FFF7C2F800ED00E073
:101ED0001407002088070020574E0000A0060020AD
:101EE000251D0000E80B002028150020A11D000082
:101EF000E807002070B50E4B0E4CA34201D3002022
:101F000070BDD3E9030141EA000212F003020BD1D4
:101F10009D685A61AA4201D11C33EEE75E69013225
:101F20000E6059610144F5E76FF01500E8E700BF66
:101F3000E4000020E4000020D3B50C4616461F46FE
:101F40004FF02003EFF3118183F31188BFF36F8FFC
:101F5000436963B1236043691B684361836901334B
:101F60008361002081F31188BFF36F8F11E056EA7F
:101F7000070203D123606FF00B00F3E70246CDE9BF
:101F80000067054800F06AFB18B9044B9B685B6961
:101F9000236002B0D0BD00BFE60700208807002004
:101FA00070B504460D464FF02003EFF3118683F31E
:101FB0001188BFF36F8F02F04CFA58B100212A68E4
:101FC0000167426102F0D0F93146BDE8704008482F
:101FD00002F0A3B92B6862691A602B686361A36978
:101FE000013BA36186F31188BFF36F8F70BD00BF03
:101FF000E60700202DE9F341044616461F464FF040
:102000002003EFF3118883F31188BFF36F8FC36848
:10201000324A6BB180689168884219D056EA07034A
:1020200018D188F31188BFF36F8F6FF00F000CE0A9
:10203000916891F90E100133E36093682161A36008
:1020400088F31188BFF36F8F002002B0BDE8F081E4
:102050002169F0E790F90E3091F90E109942A8BF6E
:10206000194621EAE17199422CDA00F00BFB054692
:10207000CDE9006722464146194800F0EFFA0028F2
:10208000E3D04FF02003EFF3118683F31188BFF301
:102090006F8F236821699C4207D033B193F90E30CA
:1020A0009942A8BF194621EAE171A06890F90E3063
:1020B000994209D16DB13146094802F02EF96FF00D
:1020C0000A00C2E70025D3E700F0DCFA0028F2D1CD
:1020D000F0E786F31188BFF36F8FF0E788070020E1
:1020E000E607002038B583680446002B36D01E4A28
:1020F0009268934235D1DA7B013ADA73C368012BD7
:1021000005D0013BC36000F0C3F8002038BD4FF09C
:102110002003EFF3118583F31188BFF36F8F0169FB
:10212000806890F90E30994201D000F0ABFA204659
:1021300002F08FF9A06058B190F90E2022610022C0
:10214000026702F011F92946084802F0E6F8DAE7DA
:10215000E06085F31188BFF36F8FD4E76FF015004F
:10216000D4E74FF0FF30D1E788070020E6070020D2
:1021700010B5084C23685BB1FEF7DEFB2368064A06
:10218000184410610021BDE81040184602F0BCB9A7
:1021900010BD00BFC007002088070020F8B50D461D
:1021A0004FF02003EFF3118483F31188BFF36F8F97
:1021B0004FF4004140F2E73600270022E1FB0067C0
:1021C000094B30461A6139464FF47A720023FEF704
:1021D00035F8064B1860064B1D60FFF7C9FF84F306
:1021E0001188BFF36F8FF8BD88070020C00700205B
:1021F000BC0700204FF02003EFF3118183F3118817
:10220000BFF36F8F044B9A68D37B013BD37381F389
:102210001188BFF36F8F704788070020094B03F1C7
:102220002802824205D19B688B4202D14B7BDB06A0
:1022300007D1D1E900231A600A6853600023C1E97D
:10224000003370478807002070B5104C064604F133
:10225000280002F083F80546A368597B880644BF2E
:1022600041F00801597305B9E5684EB95A7BD206A9
:1022700006D1AA6922B9DA897F2A01D9636270BDC1
:10228000AB4201D0FFF774FF6562F8E788070020D2
:1022900010B54FF02003EFF3118483F31188BFF3DF
:1022A0006F8F084B00209A68D37B0133D373FFF7FD
:1022B000CBFF84F31188BFF36F8FBDE8104002F0AD
:1022C00043B800BF8807002070B4437BDB0628D1E9
:1022D000836933BB144A02F12801D2E90A348B42E4
:1022E0000BD053B190F90E5093F90E60AE420ADC58
:1022F000A34202D01B68002BF6D1C0E90014D36AB8
:102300001860D06205E05A68C0E900325A6810606F
:102310005860437B63F07F03437370BC0020FFF77A
:1023200093BF70BC704700BF8807002010B54FF006
:102330002003EFF3118483F31188BFF36F8F437B86
:10234000590704D484F31188BFF36F8F10BD23F0B5
:1023500004034373FFF7B8FF2146BDE8104001486E
:1023600001F0DBBFE6070020F8B504464FF020037C
:10237000EFF3118583F31188BFF36F8F90F90D3060
:10238000002B03DA01461848FFF748FF174A02F10D
:102390002801D2E90A308B420BD053B194F90E6078
:1023A00093F90E70B7420ADC834202D01B68002BFF
:1023B000F6D1C4E90010D36A1C60D46205E0596804
:1023C000C4E9003159680C605C60637B906863F01D
:1023D0007F036373031B58425841FFF735FF85F3B2
:1023E0001188BFF36F8FF8BDB00700208807002069
:1023F000154A164938B50C689368A342144603D1B0
:10240000BDE83840FFF7B4BE00250D6010490968EB
:10241000B9B1D9897F2914D80E4993F90E500968AA
:102420008D420EDB0C498B420BD0996949B9116979
:10243000814203DC1846FFF797FFE1E7091A1161B3
:1024400038BD00232361FBE788070020B807002080
:10245000C0070020BC070020A006002070B504467D
:10246000183002F02BF84FF02003EFF3118683F3BE
:102470001188BFF36F8F94F90D30002B07DA2146D6
:102480000E48FFF7CBFE637B03F07F0363730C4DB5
:10249000637BA86843F010036373031B58425841E1
:1024A000FFF7D2FE86F31188BFF36F8FAB68A342AC
:1024B00003D1BDE8704001F047BF70BDB0070020F8
:1024C00088070020836D2DE9F041044603B1984749
:1024D00004F1180001F0F2FF4FF02003EFF3118632
:1024E00083F31188BFF36F8F637BD80623D1A26972
:1024F0000ABB190607D521461E48FFF78FFE637BEE
:1025000003F07F0363731C4B9868021B50425041D9
:10251000FFF79AFE0027637B04F1280843F00803C5
:102520006373A56A454500D095B986F31188BFF35A
:102530006F8FBDE8F0819B07ECD52146A068FFF7BF
:102540006DFE637B23F0020363730023A360E1E766
:1025500005F1180001F0B2FFA8682946FFF75EFEFA
:102560006B7BAF6023F002036B732F672846FFF786
:10257000ABFED6E7B00700208807002010B590F921
:102580000D300446002B07DA01460848FFF746FEE7
:10259000637B03F07F036373054B9868031B58420A
:1025A0005841BDE81040FFF74FBE00BFB007002004
:1025B00088070020F8B5064601F0C0FF34184FF038
:1025C0002003EFF3118783F31188BFF36F8F0D4D55
:1025D0000D4BA868186001F003FFA8680B4932464C
:1025E000F317183000F0D4F9AA683846537B43F04B
:1025F00010035373FEF79CFC01F0A0FF201A20EAA1
:10260000E070F8BD88070020B8070020894300006B
:102610002DE9F041064614461D464FF02003EFF326
:10262000118783F31188BFF36F8F01F0E9FE87F301
:102630001188BFF36F8F6B1C08BFB4F1FF3F08D048
:1026400022462B4606F118000349BDE8F04100F090
:102650009FB9BDE8F08100BF8943000010B50C466A
:10266000064B11469868064B1860DDE90223FFF718
:10267000CFFF2046BDE81040FEF75ABC8807002077
:10268000B80700202DE9F04104464FF02003EFF396
:10269000118883F31188BFF36F8F437B4EB2DB0643
:1026A0002FD183696BBB184D014605F128073846C9
:1026B000FFF7B4FDAB6AA673BB422A460AD04BB102
:1026C000E96A93F90E00B0420BDC994202D01B6814
:1026D000002BF6D1D36A27606360D36A1C60D46292
:1026E00005E05A68C4E900325A6814605C60012051
:1026F000FFF7AAFD012088F31188BFF36F8FBDE8B3
:10270000F081A6730020F6E7880700200021044B23
:10271000084603F12802C3E90A22FFF73FBD00BFC4
:1027200088070020F8B5244C244BA2689A4236D082
:102730004FF02003EFF3118683F31188BFF36F8FFF
:1027400004F12805A1682846FFF768FDA26AA3687E
:10275000AA420CD05AB1E06A93F90E1092F90E70A9
:102760008F420BDC824202D01268002AF6D1E26A64
:102770001D605A60E26A1360E36205E05168C3E9D4
:10278000002151680B6053605A7B012062F07F0288
:102790005A73FFF759FD86F31188BFF36F8F4FF01F
:1027A0002003EFF3118083F31188BFF36F8FBDE82F
:1027B000F840FEF7BDBB00BF88070020A006002040
:1027C000013108BFB0F1FF3F10B506D10B4B98683F
:1027D000FFF744FE4FF0FF3010BD044648B9FFF745
:1027E000A1FF4FF47A7084FB0034D80B40EA4440D8
:1027F000F2E7FFF7DFFE0446F3E700BF880700209B
:10280000014B9868704700BF88070020F0B500F1C1
:102810002805C0E90A55042545730025044687B0FC
:10282000DDE90F678673CDE903670E9E0773029695
:102830000D9EC57301960C9EC0E906550096FEF7E5
:10284000EDFB054BC4E915559B6813B9A36607B0AA
:10285000F0BD9B6EFAE700BF880700202DE9F04F1E
:102860002A4E2B4DB04687B0B54205F1300410D347
:10287000FFF7C0FC4FF4004940F2E7360027244C34
:10288000DFF890A0444521D307B0BDE8F04FFFF733
:10289000FFBC54F8043C059354F8103C049354F8DE
:1028A000143C039354F8183C029354F81C3C0193D5
:1028B00054F8203C009354E90A2354E90C01FFF733
:1028C000A5FF54F8303C5D652546CDE7616A4B1C99
:1028D00013D0B346BC4621EAE171C9FB01BC4FF4F9
:1028E0007A72002358466146FDF7A8FC2568024627
:1028F000002320B92846FFF719FD3034C2E75146BE
:1029000005F1180000F044F8F7E700BFE4000020EC
:10291000E400002089430000034B1B680BB9FEF75D
:102920000BB80020704700BFC40700200B4B10B548
:102930001C689C4208BF0024FFF7EEFF54B1A36857
:10294000181A20EAE070064B1B6913B19842A8BF21
:10295000184610BD6FF00040F5E700BF4C000020A6
:1029600088070020036840B1084A5268904204D0AA
:102970001BB19A6881680A449A60426813600368D0
:102980005A600023C0E90033704700BF4C000020AC
:102990002DE9F84F0D46591C08BFB2F1FF3F044620
:1029A00059D06FF001064FF0FF3712F1010A43F1E1
:1029B000000BB6EB0A0267EB0B03002A73F100036E
:1029C0000FDBFFF7A9FF284BD3E90023B61A67EB0B
:1029D0000307B6EB0A0667EB0B07B6EB000A67EBDB
:1029E000E07BE5604FF02003EFF3118583F311885E
:1029F000BFF36F8F5646FFF78FFF012E7BF1000369
:102A0000B8BF0126194B06441A68A6609A4201D045
:102A10005E6832B95A68236062605A6814605C600C
:102A20000BE09068A168884217DD411A91605168F7
:102A3000C4E9002151680C6054601A689A4206D0BB
:102A4000944204D1FFF772FF0021FDF70DFF85F3DB
:102A50001188BFF36F8FBDE8F88F091AB242A160E9
:102A6000D8D01268D5E700BF480100204C000020F4
:102A70002DE9F04B0446FFF7BBFC4FF02003EFF3CA
:102A8000118583F31188BFF36F8F214F214EB84614
:102A9000DFF884903460D9F8004032684C45D7E9BB
:102AA00000BC05D024B1A368934214DD9B1AA36037
:102AB00000241BEB02004CEBE271C8E9000134601A
:102AC000FFF734FF2146FDF7CFFE85F31188BFF3F2
:102AD0006F8FBDE8F08B1BEB03004CEBE371D31A57
:102AE00033600023C7E90001A3602046FFF73AFFE7
:102AF00085F31188BFF36F8FE36898474FF0200389
:102B0000EFF3118583F31188BFF36F8FC3E700BF25
:102B100048010020C40700204C0000202DE918487F
:102B20004FF02003EFF3118483F31188BFF36F8F0D
:102B3000FDF702FF074BD3E9002312EB000B43F133
:102B4000000C5846614684F31188BFF36F8FBDE8CF
:102B5000188800BF4801002038B5064C064DAC422D
:102B600001D3002038BDD4E90112204601F0EAFC6F
:102B70001434F4E7E4000020E400002001F0B8BAC7
:102B80000A46002101F0F8BA10B5114800F048F8E3
:102B900000B110BD0F4800F043F80028F9D10E4CE9
:102BA000204600F03DF80028F3D10C4B0C481C6087
:102BB00000F036F801460028EBD100F02DF804466D
:102BC00008B1204610BD00F051F82046FAE700BFDA
:102BD00060000020540000205C0000206400002001
:102BE0005800002008B5084800F024F8074800F015
:102BF00021F8074800F01EF8064800F01BF8BDE871
:102C0000084000F00BB800BF600000205400002016
:102C10005C0000205800002000207047704700BF73
:102C200008B5034B02681B6810689847002008BD70
:102C30007000002008B5034B02685B681068984775
:102C4000002008BD700000200268024B10689B68DD
:102C5000184700BF7000002008B5034B0268DB680E
:102C600010689847002008BD7000002070B5094C1E
:102C7000094D2069AB68984718B1084B08485B6854
:102C800098470021074AEB6811602069BDE8704051
:102C9000184700BF8000002070000020680000205E
:102CA000A0490000C8070020F8B51A4C1A4D074685
:102CB000AB6820699847E8B9184E33687FB93BB9CB
:102CC0000120174A1749C2F800050A68002AFCD1FA
:102CD00001333360EB68206998470020F8BD002B72
:102CE000F8D0012B08D0013B33602069EB6898478E
:102CF0000020F3E70C48F8BD0A4A1368002BFCD10A
:102D0000074A6FF07E40C2F8003500F021F83368C2
:102D1000E9E700BF8000002070000020C807002005
:102D20000000845010198450E98FFFFF0020704785
:102D300000207047430503D54FF0FF32024B1A6065
:102D4000024B1860704700BF08118450081A845065
:102D5000014B1860704700BF041A845008B100F09E
:102D600003B84FF4750070470246074803681342E2
:102D7000FCD021B1054B06481B680B600360054B76
:102D800000201A60704700BF001A8450041184505C
:102D900008118450081A845000F0A0B830B129B14D
:102DA00000230144037001308142FBD1704700BF12
:102DB0002DE9F041ADF51A7D0F460592002114462C
:102DC00012A84FF408721E4601F0D6F9002308A895
:102DD00019462822069301F0CFF9002F3CD0002E8F
:102DE0003AD0002C38D0042106A8FFF7C9FE08A865
:102DF0002821FFF7C5FE08A800F032F878B14FF09F
:102E0000FF3512A84FF40871FFF7C8FF06A8042188
:102E1000FFF7C4FF28460DF51A7DBDE8F08112AB1F
:102E20000DF11C080390CDE90163024605AB08A92A
:102E3000CDF8008006A800F0E9FC0028DFD1336857
:102E4000A342DCD3D8F800100546083138462246A4
:102E5000FFF794FE3460D4E74FF0FF35DAE700BFA8
:102E60001C2330B583B002A941F8043D044600F0AC
:102E7000B1F90546D8B9019B1C2B1BD1D4E900320E
:102E800001210033E16118BF01230AB143F00203BD
:102E9000A26832B9E268AAB9C4E908323BB90D4D5B
:102EA00009E0E26843F0040362B9C4E90832284645
:102EB00003B030BD084D20461C21FFF761FE2846B7
:102EC00003B030BD0022284643F00803C4E90832AD
:102ED00003B030BD0E0CF000370CF00010B50C4CF8
:102EE000236813B10B4B1B686BB900F031F938B193
:102EF0000138062896BF084B084853F8200010BD3B
:102F00000122044B1A6001230020236010BD00BF82
:102F1000CC070020D0070020C0490000FE8FFFFF33
:102F200010B5094C23681BB101230020236010BD9C
:102F300000F07CF80028F7D00138062896BF034B34
:102F4000034853F8200010BDCC070020C049000002
:102F5000FE8FFFFFBFF34F8F0549064BCA6802F48F
:102F6000E0621343CB60BFF34F8F00BFFDE700BFAC
:102F700000ED00E00400FA05014B5B68184700BF54
:102F800068000020024BD0E90012C3E9001270472C
:102F900068000020704700BF10B5044620B1BFF3A1
:102FA0005F8F0020206010BD0348FFF7E5FFBFF3EF
:102FB0005F8F0020206010BD004A000010B504465D
:102FC00010B10023236010BD0248FFF7D5FF002396
:102FD000236010BDDC49000050B10122D0E8EF3F72
:102FE000C0E8E12F0029F9D1012BF7D0BFF35F8FA3
:102FF0000020704770B40B4B0668C268D0E90154DA
:10300000C3E90242C3E90065D1E903020E68064B39
:10301000D1E90154C3E90065C3E902401A6170BCFB
:10302000704700BF700000208000002010B5FFF73F
:103030007DFE70B9FFF7A8FD80B9FFF735FE80B9B6
:10304000114B1B681B0EF02B0DD00624FFF770FEF2
:1030500000E00324FFF7C6FD204610BD04242046EF
:1030600010BD0024F2E7094A094B12689A4201D0C8
:103070000724EBE70120FFF717FE0028F1D1054BED
:1030800004461860E8E700BF28198450241A8450C9
:103090000000E0200C1A845030B5ADF5157D4FF4DA
:1030A000087200210CA801F067F8002302A8194655
:1030B0002822019301F060F802A8FFF7D1FE18B1B1
:1030C00005200DF5157D30BD1C4D4FF0FF312868F2
:1030D000FFF7BAFD0446F0B90020FFF7E5FDB0B9EF
:1030E0000CAA02A901A800F0D5FB04460120FFF7B5
:1030F000DBFDF0B92868FFF7AFFD10B11048FFF70E
:103100003BFF2046002CDBD10DF5157D30BD0D4871
:10311000FFF732FFE4E70C48FFF72EFF012CDBD16D
:103120002868FFF799FD0028CAD00548FFF724FF5B
:10313000C6E70648FFF720FFDCE700BF6400002079
:10314000384A0000504A0000204A0000704A00003F
:1031500008B5FFF7EBFD18B1FFF744FD032008BDEC
:10316000FFF712FD68B9FFF79FFD60B9154B1B68AB
:103170001B0EF02B12D0FFF7DBFDFFF733FD06200F
:1031800008BD042008BDFFF7D3FDFFF72BFDFFF7B7
:1031900083FF00280CBF0020052008BD0A4A0B4B06
:1031A00012689A4205D0FFF7C3FDFFF71BFD072009
:1031B00008BD0120FFF778FD0028E4D1044B18601A
:1031C000E5E700BF28198450241A84500000E0204D
:1031D0000C1A845018B111B10B681C2B01D00120BE
:1031E00070474FF47F033A4AD3F8101C91425AD0EB
:1031F000D3F8102C013256D0D3F8102C4FF47F03A3
:103200000260D3F8141C334A91425ED0D3F8142CD8
:1032100001325AD0D3F8142C4FF47F034260D3F814
:10322000182C12F5947F4DD0D3F8182C013249D0C8
:10323000D3F8182C4FF47F038260D3F81C1C264A65
:1032400091423CD0D3F81C2C013238D0D3F81C2C3E
:103250004FF47F03C260D3F8002C70322DD0D3F826
:10326000002C013229D0D3F8002C4FF47F030261E7
:10327000D3F8042CAF321ED0D3F8042C01321AD06C
:10328000D3F8042C4FF47F034261D3F8081C134A8F
:1032900091420BD0D3F8082C013207D0D3F8083C68
:1032A00083610020704740F6FC02A7E740F2373305
:1032B0008361002070475122E4E79022D5E742F66F
:1032C0000412C5E740F6D862B4E742F2D002A3E7A1
:1032D000FCF8FFFFD020FFFF0429FFFF37F3FFFFBB
:1032E000A8B32DE9F0414C1EB4F5047F2CD25BB39A
:1032F00052B34FF0000CC900E646654664464F1EC7
:1033000003F1FF380CE0AB4216D08E4501D10CF131
:10331000010CA84516D00134BC4205F1010518D8AE
:10332000610950F8211004F01F06F1401F2E18BF4C
:1033300001F00101002CE6D10025A8458E464FF092
:10334000010CE8D16245E6D20348BDE8F0810248AD
:1033500070470020BDE8F081370CF1002DE9F04FF7
:103360008FB00D46DDE919418346002957D12969FF
:10337000039100211C60189B1960002A00F0228133
:10338000814A824B11686A6A1B689A4257D10A299E
:1033900055D19BF8033006930399042308467C4AD1
:1033A0000293A2FB00029208CB0002EB420204F15E
:1033B0000800A1EB4202013BDFF8D091DFF800A248
:1033C000049000920593189B039C1C60002C00F055
:1033D000CC800026049F00F0A9FA00230793069BE7
:1033E000BBF1000F3AD0002D34D053BB5B000693E5
:1033F000BBF1000F36D0002D34D0E3B106A928462A
:1034000000F084FA002800F07D81624B984212D0CF
:10341000009000F08BFA00980FB0BDE8F08F4FF4E9
:103420007F01D1F80C0C01300CBF4FF40471D1F8BE
:103430000C1C03919DE72B6A73B95648E8E7564880
:10344000E6E706A9284600F061FA68B1534B9842B6
:10345000DED0069B082BC9D15148D9E7082BFBD0F9
:103460005B0006934F48D3E72946069800F030FAF0
:103470000028EBD1069B082B00F00E81042B00F0F6
:103480003181A3F10203B3FA83F35B0901930123B2
:103490001946454A136042F8843C434B19606B6AF5
:1034A000C9F80030D9F800206B6A9A42F5D14FF084
:1034B00000084FF0FF30CAF80080FFF73BFC3B4AA2
:1034C0003B4B40461A60FFF743FC0A2201983949FA
:1034D0002D4B08601A602A69A8F15538A8FB021222
:1034E0006B6A120903EB4303DB0303FB02F3324A6B
:1034F0009B0913600123CAF800300699DBF800200D
:103500000B0243EA016322F07F421343CBF8003001
:1035100007A800F0CDF9002898D1284BA8FB042873
:103520001A681433089253F8102CB6EB980F0992CE
:1035300053F80C2C0A9253F8082C0B9253F8042CD5
:103540000C921B680D9301D1009B9BB93846182241
:1035500008A9FFF713FB183C18370136002C7FF43D
:103560003AAF049B002B40F09A800023189A136016
:10357000069B6FE71A46384608A9E41AFFF7FEFAD9
:10358000009B1F44E9E700BF38118450301184507C
:10359000ABAAAAAA310CF100300CF100020CF10028
:1035A000320CF100350CF100C4118450FEFFFF0F06
:1035B000001184500C118450D8118450141184507F
:1035C0002C118450BBF1000F3FF44CAF002D3FF4A1
:1035D00049AF01230EA941F8203DCBF80020284631
:1035E00000F094F900287FF413AF2946069800F004
:1035F0006FF900287FF40CAF069F082F00F0EB80D6
:10360000042F00F0EA80A7F10207B7FA87F77F09D5
:1036100001221646734B74491A6018460A60943B9F
:1036200006606A6A1A6019686A6A9142F8D14FF0B6
:1036300000086E4B4FF0FF30C3F80080FFF77AFBB5
:103640006B4B6C4A40461A60FFF782FB0A226A49BC
:103650006A4B0F601A601A992B6901296A6A00F097
:10366000B1806749A1FB03131B09012102EB420250
:10367000D20303FB02F3634A9B0913605B4B19609F
:103680000699DBF800200B0243EA016322F07F4237
:103690001343CBF800307FE603230193F7E6039B47
:1036A000B3F5047F3FF661AFDDE9047C2046234695
:1036B0006E6904E0012001336345144615D85A09A8
:1036C00057F8222003F01F01CA401F2918BF02F03B
:1036D0000102002BEED0A242ECD101308642EAD1A9
:1036E00049480BE002230193D1E64FF48063DDE902
:1036F0000310AA69FFF7F4FD00285DD00023189A93
:103700001360A3E62946069800F0E2F800287FF44B
:103710007CAE069C082C51D0042C51D0A4F102049C
:10372000B4FA84F4640901231E4619462D4A136035
:1037300042F8843C2B4B19606B6AC9F80030D9F809
:1037400000206B6A9A42F5D100274FF0FF30CAF88B
:103750000070FFF7EFFA264B264A38461A60FFF74B
:10376000F7FA0A222449254B0C601A602A69244979
:103770006B6AA1FB021203EB43031209DB0303FB99
:1037800002F3204A9B091360CAF80060069BDBF82D
:1037900000101A0242EA036321F07F421A43130A1F
:1037A00003F47F03134323F07F43CBF80030029BE5
:1037B000013B02937FF407AE002029E60324B2E721
:1037C0000224B0E74FF47F03D3F80C1C013106D07C
:1037D000D3F80C3C45E703271AE7022718E716231E
:1037E00043E700BFC4118450401184502C11845011
:1037F00000118450FEFFFF0F0C11845038118450CB
:10380000ABAAAAAAD8118450360CF1002DE9F043D6
:103810001B4C85B00746DDE90D56884620684FF001
:10382000FF319146FFF710FA28BB0020FFF73CFA62
:10383000E8B90023CDE9005602934A46414638468E
:103840000C9BFFF78BFD05460120FFF72DFA50B9C1
:103850002068FFF701FA10B10A48FFF78DFB2846F0
:1038600005B0BDE8F0830848FFF786FBF0E707489E
:10387000FFF782FBDDE70648FFF77EFBD5E700BFD9
:1038800064000020384A0000704A0000504A0000DE
:10389000204A000010B5012486B005ABCDE9012413
:1038A0000093002204ABFFF759FD06B010BD00BF26
:1038B00008B501464FF48060FFF750FA0023024933
:1038C000024A0B60136008BDC81184502C1184504B
:1038D0000138072815D8DFE800F0100C140814147C
:1038E0001404CB6800204B6270478B6800204B6249
:1038F00070474B6800204B6270470B6800204B629A
:1039000070470148704700BF310CF1000B6802E0BE
:10391000082B0B6006D8026A13424FEA4303F7D024
:103920000020704700487047310CF1000023044923
:10393000044A0B604FF480601360FFF7FBB900BFCF
:103940002C118450C411845008B5FDF701F9BDE86D
:103950000840FDF791B80020704770B50D46044649
:103960004520A04729465220A04729462346BDE8C6
:103970007040522018472DE9F04F4FF000080646DE
:103980000F461C464FF0FF3AC1468BB002F1FF3B99
:10399000002505E05DB9252800F056813946B0477D
:1039A0001BF8010F0028F5D10BB0BDE8F08F64289B
:1039B0006DD01AD839280AD831285FD22D2800F0C6
:1039C000498130284BD0252807D139460BE05828AB
:1039D00000F0BC80632800F0318139462520B047D3
:1039E00039469BF80000B047D2E7702800F0A48069
:1039F00011D869284BD06C2805D1B8F16C0F29D1AA
:103A00004FF04C08CCE76828E7D1B8F1680F21D116
:103A10004FF04808C4E7752870D017D87328DCD158
:103A20002568231D02932B461C4614F8010B002821
:103A300040F0FB80B9F1030F40F012815C1BAAEB50
:103A40000404002C00F3F580029CA1E778287DD0C7
:103A50007A28C2D1B8F1000FBFD18046A0E7BAF1F1
:103A6000000F0EDAB9F1000F00F0F780A0F1300A74
:103A7000B9F1000F08BF4FF0020991E7BAF1000F4A
:103A8000F4DB0A2303FB0A0AAAF1300AF0E7B8F1D3
:103A90007A0F02D1256804341FE0B8F16C0FF9D019
:103AA000B8F14C0FF6D1073424F0070303F10804F2
:103AB000D3E9002312F10040CDE9022343F10001D4
:103AC00000234FF0FF328B4208BF824204D23946B6
:103AD0003046FFF742FF5BE7029D002D05DA3946CD
:103AE0002D20B0476D420AF1FF3A4B462A46CDF8E9
:103AF00000A039463046FCF761FD49E7B8F17A0F7E
:103B000002D12268043413E0B8F16C0FF9D0B8F197
:103B10004C0FF6D100214FF0FF30073424F007039B
:103B200003F10804D3E90023994208BF9042CED3A1
:103B3000CDF800A04B46DCE739463020B047394687
:103B40007820B0474FF0080A4FF001099BF8003089
:103B5000702B05D1236804340693002302930EE0F2
:103B6000B8F16C0FF6D0B8F14C0FF3D1073424F054
:103B700007031A6803F108045B68069202930023A6
:103B80001022059307934023043B02990698C3F142
:103B9000200CA3F1200ED84001FA0CFC40EA0C00E6
:103BA00021FA0EFE40EA0E0010F00F0007D107992F
:103BB00001B92BBB4FF0300C07E00795E4E709286B
:103BC0008CBF4FF0570C4FF0300C39466044CDE9B4
:103BD0000732B047059B01330593DDE90732002B1F
:103BE000EBD1B9F1030F7FF4D3AE059BC3EB4A05CC
:103BF000002D7FF7CDAE39462020B047013DF7E7D5
:103C0000511E9245089107DBB9F1010F06D13946E3
:103C100030200993B047099B089AB5E7B9F1020F24
:103C2000FAD1099339462020F4E73946B0472346B4
:103C3000FAE639462020B047013C02E72068251DFE
:103C40003946B0472C46A3E6A846A9464FF0FF3AAE
:103C50000125A5E64FF00309A2E64FF001099FE612
:103C6000029C05469CE60FB407B504A951F8040B65
:103C70000191FCF7F5FC03B05DF804EB04B070476C
:103C8000044608B5084611461A46A047FEF7B8FD97
:103C9000FDF7B6FB036803EBC1018368B3F5004F82
:103CA0002CBF51F8220031F81200704710B504689B
:103CB000806804EBC101B0F5004F2CBF41F8223001
:103CC00021F8123010BD2DE9F041044600220D46C6
:103CD000FFF7E0FFE3681840B0FA80F0A368C0F196
:103CE0001F00B3F5004F28BF0138636803EBC00124
:103CF0004A68561C4E60A2B9012202FA00F16269BC
:103D00000A436261294643F8305002222B4620467E
:103D1000FFF7CCFF032229462046BDE8F041FFF71C
:103D2000C5BF53F83060022231462046FFF7B2FF8C
:103D300007460346022229462046FFF7B7FF3346CF
:103D4000032229462046FFF7B1FF032239462B46BE
:103D50002046FFF7ABFF02223146DDE7F8B5CC1D68
:103D600024F00704046047F6FF708B1823F0070364
:103D70001B1BDB08B3F5004F2CBF6FF0004202465F
:103D8000B3FA83F5E2600022C5F11F0583428CBFC0
:103D90002946691C944604F1180621F06041C4E9E3
:103DA00001630331246062612161A768874294BF87
:103DB0002F466F1EBA420ADD5B1A20460022FFF72B
:103DC00075FF21692046BDE8F840FFF77CBFC6F8C3
:103DD00004C0013246F808CBE7E77047FDF7B0BEF4
:103DE0000C22C368C9B202FB01314B7A23B9087AAD
:103DF000B0FA80F0400970470220704770B5C9B230
:103E00004468C5684FF02003EFF3118683F31188EF
:103E1000BFF36F8F0C224A43AB18187A90B1013868
:103E2000C0B2187288B904EB81040121A850E2786D
:103E3000586002F150221160587286F31188BFF366
:103E40006F8F70BD6FF04400F7E70020F5E72DE9B4
:103E5000F8434668CFB2D0F80CE04AB10C237B435C
:103E60005EF803309A4252D013B11B68002BF9D18F
:103E70004FF02003EFF3118C83F31188BFF36F8FA2
:103E80000C257D430EEB05031C7A0134E4B21C7251
:103E90008CF31188BFF36F8F5AB34FF0502C4FF053
:103EA0000308CCF8088393F809C0BCF1000F15D1C2
:103EB0004FF02008EFF3118988F31188BFF36F8F5B
:103EC000C2F800C0D3F80480B8F1000F1BD15A60CB
:103ED0004EF8052089F31188BFF36F8F4FF0502300
:103EE0000325C3F80453BCF1000F02D0D2E901321C
:103EF0009847012C05D106EB8706B37803F15023D0
:103F00001C60002005E0C8F800205A60E2E76FF06E
:103F10000F00BDE8F8830022FFF799BF10B500221B
:103F2000044601210520FDF761F80520FDF74EF854
:103F30004FF050230222C3F8182503220020C3F8B3
:103F40000423E368C3E90000E368C3E9030010BD8C
:103F500070477047002307B502A800F8043DFEF73C
:103F60001BFF03B05DF804FB902908B5134639D157
:103F70000A4601460020FEF71BFFBDE808407146D7
:103F800072467346B7EE000AF7EE000AB7EE001A63
:103F9000F7EE001AB7EE002AF7EE002AB7EE003A65
:103FA000F7EE003AB7EE004AF7EE004AB7EE005AD5
:103FB000F7EE005AB7EE006AF7EE006AB7EE007A45
:103FC000F7EE007A8EF3008C10B4F1EE10CA4FF6C3
:103FD0006074C0F6FF740CEA040CE1EE10CA10BC69
:103FE000F44674476FF01500C7E7FEE70021012093
:103FF00000F029B843B2A9B1002B12DB01215B0903
:104000009B0003F1604303F56143D3F8802200F085
:104010001F0001FA00F022EA0000C3F88002D3F882
:1040200080327047002BFCDB01225B099B0003F10F
:10403000604303F56143D3F8801200F01F0002FAD9
:1040400000F00843E9E700F029B90146006800F0F4
:1040500025B908B5FDF72EF8BDE80840FDF7A4B96D
:1040600030B585B09DF808200D890B684C684989EA
:1040700065F3040261F3471200938DF8082023F0E2
:104080001F03621E134423F01F030F2803930446EB
:1040900005D86946FDF704FA204605B030BD6FF03B
:1040A0001504F9E740E800F313F4803FD8B208BFE5
:1040B0006FF0150070470138013910F8013F11F811
:1040C000012F934202D1002BF7D11A46981A70475C
:1040D00010B55AB10139841810F8012B11F8013FBD
:1040E000A04201D09A42F7D0D01A10BD1046FCE78A
:1040F000431A934210B500EB020308D3024601397C
:104100009A420BD011F8014F02F8014BF8E70A442C
:1041100012F8014D8A4203F8014DF9D110BDF0B5F6
:1041200081EA0004A50703460BD0013B0A449142F3
:104130001DD1F0BD002AFCD011F8014B013A03F863
:10414000014B9C07F6D10C461D1F8F183E1B032EFA
:1041500008D86FF00305940805FB0422A40023444B
:104160002144E2E754F8046B45F8046FEEE711F8D8
:10417000014B03F8014FDAE70346F0B5C9B29C07DB
:104180000FD11D4641EA012444EA04449F187E1BD6
:10419000032E0CD8940803EB840413449C4209D1E9
:1041A000F0BD002AFCD003F8011B013AE7E745F80F
:1041B000044BECE704F8011BF0E74FF0FF307047C9
:1041C0000B46C26892E8030083E8030000207047B2
:1041D00043681B68D3F88004C3F8800470474368C1
:1041E000C2681B68D3F8100138B1127B00200A7036
:1041F0000122C3F810011A6070474FF0FF3070477A
:104200002DE9F34143688DF807101C68C66800F07B
:104210004DF9C0B964254FF0010806F10807D7E849
:10422000EF3F002B03D1C7E8E28F002AF7D10CD073
:1042300021200021013DFEF7C3FA15F0FF05EED164
:1042400002B0BDE8F0810123B3600023C4F820313F
:104250000DF10703C4F8443501234FF47A75C4F80F
:104260004835A360D4F8203123B9012000F014F8B8
:10427000013DF7D10123E3600023B360E0E708B517
:104280000020FDF79FF808B5FCF7B8FDFCF73AFEF3
:10429000BDE80840FEF744BE00F00EB9F8B506468A
:1042A0000F464FF02003EFF3118583F31188BFF31E
:1042B0006F8FFEF7A5FA394604463046FFF7DFFF59
:1042C00085F31188BFF36F8F2046BDE8F840FDF7F6
:1042D00097B8FFF73EBE30B50024846141EA02047E
:1042E00014F00304C0E9023201610CD14461A3421D
:1042F00003D1C0E90000002030BD456901340D60E4
:1043000041611144F3E76FF01500F5E70346002023
:10431000C3E90033C3E90200704721B9EFF3058018
:1043200008B9FCF705BE81F31188BFF36F8F7047A2
:10433000034620B9EFF305820AB9FCF7F9BD83F310
:104340001188BFF36F8F70474FF02003EFF3118098
:1043500083F31188BFF36F8FFFF7EABF03689842BA
:1043600014BF18460020704710B54FF02003EFF33C
:10437000118483F31188BFF36F8FFDF7A5FF84F3DA
:104380001188BFF36F8F10BD50F8103C70B5044614
:10439000A0F11805CBB14FF02003EFF3118683F3A2
:1043A0001188BFF36F8F294650F8100CFDF736FFC8
:1043B00014F80B3C23F0020304F80B3C002344F8F0
:1043C000103C86F31188BFF36F8F14F80B3C28461E
:1043D00023F0140304F80B3CBDE87040FFF7C4BFA2
:1043E00010B54FF02003EFF3118483F31188BFF36E
:1043F0006F8FFEF7C3F884F31188BFF36F8F10BD82
:1044000038B504460D46FEF7B9F8637B43F0020366
:104410006373EDB12B68A5609D420CD05BB194F93C
:104420000E2093F90E1091420CDC69688B4202D089
:104430001B68002BF5D16B68256063606B681C609E
:104440006C6005E05A68C4E900325A6814605C6028
:1044500038BD38B54FF02003EFF3118283F3118894
:10446000BFF36F8FFFF77AFF044682F31188BFF323
:104470006F8FC8B14FF02003EFF3118583F31188DC
:10448000BFF36F8F01468068FDF7C8FE637B23F0A2
:10449000020363730023A36085F31188BFF36F8F5A
:1044A00004F1180000F00AF8204638BDEFF305804B
:1044B000003018BF01207047FCF7F6B810B54FF078
:1044C0002002EFF3118482F31188BFF36F8F03682A
:1044D0003BB1FEF747FA002084F31188BFF36F8FDA
:1044E00010BD6FF01500F7E710B54FF02003EFF3A4
:1044F000118483F31188BFF36F8FFEF717FA84F3EB
:104500001188BFF36F8F10BD70B504460E464FF093
:104510002003EFF3118583F31188BFF36F8FFEF74C
:1045200005FA012805DDA04203DD31462046FCF7EF
:104530009BF985F31188BFF36F8F70BD08B5FEF747
:10454000EDFA08BD10B400F10C04C0E903445DF8B5
:10455000044BFFF703BC704714BDFF7F0100000050
:104560008106000000000000F51E000000000000B1
:10457000592B000000000000291600000000000078
:104580001D3F000094000020491A0000A4000020F4
:10459000291A0000B4000020BD0600000000000041
:1045A00001080000C400002087420000D400002061
:1045B000691A00000000000000000000ED3F00004C
:1045C00000000000ED3F000000000000ED3F000093
:1045D00000000000ED3F000000000000ED3F000083
:1045E000000000006107000000000000ED3F000037
:1045F00000000000ED3F000000000000ED3F000063
:1046000000000000ED3F000000000000ED3F000052
:1046100000000000ED3F000000000000ED3F000042
:1046200000000000ED3F000000000000ED3F000032
:1046300000000000ED3F000000000000ED3F000022
:1046400000000000ED3F000000000000ED3F000012
:1046500000000000ED3F000000000000ED3F000002
:1046600000000000DD07000000000000ED3F00003A
:1046700000000000ED3F000000000000ED3F0000E2
:1046800000000000ED3F000000000000ED3F0000D2
:1046900000000000ED3F000000000000ED3F0000C2
:1046A00000000000ED3F000000000000ED3F0000B2
:1046B00000000000ED3F000000000000ED3F0000A2
:1046C00000000000ED3F000000000000ED3F000092
:1046D00000000000ED3F000000000000ED3F000082
:1046E00000000000ED3F000000000000ED3F000072
:1046F00000000000ED3F000000000000ED3F000062
:1047000000000000ED3F000000000000ED3F000051
:1047100000000000ED3F000000000000ED3F000041
:1047200000000000ED3F000000000000ED3F000031
:1047300000000000ED3F000000000000ED3F000021
:1047400000000000ED3F000000000000ED3F000011
:1047500000000000ED3F000000000000ED3F000001
:1047600000000000ED3F000000000000ED3F0000F1
:1047700000000000ED3F000000000000ED3F0000E1
:1047800000000000ED3F000000000000ED3F0000D1
:1047900000000000ED3F000000000000ED3F0000C1
:1047A00000000000ED3F000000000000ED3F0000B1
:1047B00000000000ED3F000000000000ED3F0000A1
:1047C000DEE61E284CBBCE8F025B00001D00000001
:1047D0001C0000001A0000001B0000000100000087
:1047E000000000000F0000000E000000DEE61E28A2
:1047F000EAAC45B8025B0000DEE61E284CBBCE8F5B
:10480000025B00000000000000000000000000004B
:104810000338FDD870470000173F0000FD3D000041
:104820004F3E000000000000E13D0000544C00003D
:10483000420100005B4C000005010000654C0000D7
:10484000140100006E4C000015010000774C0000C0
:1048500039010000804C0000090100008B4C000071
:104860000A000000964C00000A010000A04C000065
:104870000B010000AA4C00000F010000B54C000025
:1048800010010000C04C000011010000CB4C0000E2
:104890000E010000D54C000021010000DE4C00009C
:1048A00022010000E74C000023010000F04C000052
:1048B00024010000F94C000018010000014D000027
:1048C0002A010000094D00003A010000114D0000CE
:1048D0002C010000194D00001C010000224D0000B9
:1048E0001D0100002B4D000017010000354D000098
:1048F00031010000414D00000401000000000000F3
:104900000002000000040000000800000010000089
:1049100000000000EB3F00009D0E00005D0E000057
:10492000290E0000090E00001C00002004000020D9
:1049300014000020000000000C0000200200000015
:104940004449000000000000A34D000006000000E4
:10495000E0FF0F0000000020AB4D00002100000030
:10496000E0FF0020DF41000001420000D1410000D3
:1049700025180000C1410000008000500100000027
:10498000009000500100000060450000A0450000BC
:10499000A8450000B8450000B8450000F5FFFFFF3E
:1049A000436F756C64206E6F74206C6F636B207046
:1049B0006F7765722073617665206D757465780018
:1049C000FF8FFFFFFF8FFFFFFE8FFFFFFE8FFFFFB9
:1049D000FD8FFFFFFC8FFFFFFC8FFFFF43616E2702
:1049E0007420696E697469616C697A65206D75748B
:1049F00065782C20776173204E554C4C0D0A0000D1
:104A000043616E277420756E6C6F636B206D7574D7
:104A100065782C20776173204E554C4C0D0A0000B0
:104A20004661696C20746F206163717569726520DD
:104A30006D757465780A00004661696C20746F209A
:104A400072656C65617365206D757465780A000028
:104A50004661696C20746F20696E6372656173656D
:104A600020504D20636F756E7465720A000000005F
:104A70004661696C20746F2064656372656173655B
:104A800020504D20636F756E7465720A000000003F
:104A9000000100040401080C554152545F300073BA
:104AA00079735F636C6F636B00536563757265093F
:104AB00009004E6F6E2D53656375726509002530D0
:104AC0003275202530327520307825303578203009
:104AD00078253035782009002563004E6F6E2D5300
:104AE000656375726500466C6173682072656769FD
:104AF0006F6E730909446F6D61696E0909506572C3
:104B00006D697373696F6E730A004E6F6E2D7365F6
:104B1000637572652063616C6C61626C652072659F
:104B200067696F6E203020706C6163656420696E08
:104B300020666C61736820726567696F6E202564FA
:104B400020776974682073697A652025642E0A00CD
:104B5000436F756C64206E6F7420696E697469614F
:104B60006C697A652073656375726520736572760A
:104B7000696365732028657272202564292E0A00F6
:104B80005352414D20726567696F6E0909446F6D1C
:104B900061696E09095065726D697373696F6E732F
:104BA0000A005065726970686572616C0909446F2A
:104BB0006D61696E09095374617475730A0025305B
:104BC000327520252D32317325730009534B49501E
:104BD0000A00094552524F520A00094F4B0A00532E
:104BE000504D3A204E5320696D61676520617420F5
:104BF000307825780A0053504D3A204E53204D53BB
:104C00005020617420307825780A0053504D3A20A6
:104C10004E5320726573657420766563746F7220DD
:104C2000617420307825780A0053504D3A20707214
:104C3000657061726520746F206A756D7020746F85
:104C4000204E6F6E2D53656375726520696D6167C7
:104C5000652E0A004E52465F5030004E52465F436A
:104C60004C4F434B004E52465F52544330004E521D
:104C7000465F52544331004E52465F4E564D4300FC
:104C80004E52465F554152544531004E52465F5593
:104C90004152544532004E52465F5457494D3200FE
:104CA0004E52465F5350494D33004E52465F544971
:104CB0004D455230004E52465F54494D45523100E9
:104CC0004E52465F54494D455232004E52465F5354
:104CD00041414443004E52465F50574D30004E52C2
:104CE000465F50574D31004E52465F50574D32008F
:104CF0004E52465F50574D33004E52465F57445414
:104D0000004E52465F495043004E52465F564D4357
:104D1000004E52465F465055004E52465F4547553D
:104D200031004E52465F45475532004E52465F4471
:104D300050504943004E52465F4750494F54453109
:104D4000004E52465F524547554C41544F52530016
:104D50006D757465785F696E69742063616C6C65EC
:104D6000642077697468204E554C4C2070617261E4
:104D70006D6574657200436F756C64206E6F74208E
:104D8000616C6C6F63617465206D75746578206209
:104D900065666F726520696E697469616C697A69AC
:104DA0006E6700464C4153485F30005352414D5F9F
:104DB0003000554152545F31004552524F523A2013
:104DC00043616E6E6F742066756C66696C6C20450D
:104DD00058545F41504920726571756573742E0D8A
:104DE0000A005741524E494E473A204F7074696F3E
:104DF0006E616C204558545F415049207265717551
:104E0000657374206E6F742066756C66696C6C6572
:104E1000642E0D0A0048575F43433331305F300042
:104E200076322E332E302D7263312D6E6373310046
:104E30002A2A2A20426F6F74696E67205A6570684B
:104E40007972204F53206275696C64202573202588
:104E500073202A2A2A0A006D61696E000000000092
:104E600057390000F8000020010000000C0100206C
:104E7000010000002001002001000000340100209A
:104E800001000000BB41000000C20100000103005E
:104E9000000000000000000000C20100000103004B
:104EA00000000000000000000090D0034C00002033
:104EB0004C0000208400002090000020880000208A
:104EC000800000205C00002000000000552F000042
:104ED000BD2F0000952F0000D92F0000992F000052
:104EE000E0070020D4070020DC07002000000000BD
:104EF000D80700205F4C0000904A000018480000CE
:104F000054010020B24D00008049000064490000B7
:104F100038000020984A00007849000064490000E9
:104F2000280000209F4A0000000000000000000050
:104F300000000000154E000000000000000000000E
:104F400000000000E4000020E40000200000000059
:104F5000000000000F000000F8000020F800002012
:104F600000000000000000000F0000000C01002005
:104F70000C01002000000000000000000F000000F5
:104F8000200100202001002000000000000000009F
:104F90000F00000034010020340100200000000058
:104FA000000000000F000000FFFFFFFFFFFFFFFFFA
:104FB000FFFFFFFFFFFFFFFFFFFFFFFFFFFFFFFF01
:104FC00000000000000000000000000000000000E1
:104FD00000000000000000000000000000000000D1
:104FE00000000000000000000000000000000000C1
:107FE0007FE97FE9F8F74CBE7FE97FE9F8F7A0BEAB
:107FF0007FE97FE9FBF7B8BF000000000000000048
:10C00000A88E02205DD200009FB501008DD20000F5
:10C010008DD200008DD200008DD200008DD20000A4
:10C0200000000000000000000000000049D00000F7
:10C030008DD2000000000000A5CF000025CD00003B
:10C040001DD200001DD200001DD200001DD2000034
:10C050001DD200001DD200001DD200001DD2000024
:10C060001DD200001DD200001DD200001DD2000014
:10C070001DD200001DD200001DD200001DD2000004
:10C080001DD200001DD200001DD200001DD20000F4
:10C090001DD200001DD200001DD200001DD20000E4
:10C0A0001DD200001DD200001DD200001DD20000D4
:10C0B000CDED0000C9BC01001DD200001DD2000062
:10C0C0001DD200001DD200001DD200001DD20000B4
:10C0D0001DD200001DD200001DD200001DD20000A4
:10C0E0001DD200001DD20000E7BC01001DD20000DF
:10C0F0001DD200001DD200001DD200001DD2000084
:10C100001DD200001DD200001DD200001DD2000073
:10C110001DD200001DD200001DD200001DD2000063
:10C120001DD200001DD200001DD200001DD2000053
:10C130001DD200001DD200001DD200001DD2000043
:10C140001DD2000000000000000000000000000000
:10C1500000000000000000000000000000000000DF
:10C1600000000000000000000000000000000000CF
:10C1700000000000000000000000000000000000BF
:10C1800000000000000000000000000000000000AF
:10C19000000000000000000000000000000000009F
:10C1A000000000000000000000000000000000008F
:10C1B000000000000000000000000000000000007F
:10C1C000000000000000000000000000000000006F
:10C1D000000000000000000000000000000000005F
:10C1E000000000000000000000000000000000004F
:10C1F000000000000000000000000000000000003F
:10C20000DEE61E284CBBCE8F025B00003C00000027
:10C21000EC2101000100000000C0000000C000008F
:10C22000FFFF02910000000000000000000000007D
:10C2300000000000000000000000000053B94AB9EF
:10C24000002908BF00281CBF4FF0FF314FF0FF301E
:10C2500000F07CB9ADF1080C6DE904CE00F006F8F1
:10C26000DDF804E0DDE9022304B070472DE9F04772
:10C270008C46089D04468A46002B4AD18A421746BE
:10C2800062D9B2FA82F64EB1C6F1200E01FA06F377
:10C29000B740B44020FA0EFE4EEA030A4FEA1748B0
:10C2A000230C1FFA87F9BAFBF8FE08FB1EAA0EFB47
:10C2B00009F243EA0A439A420BD9FB180EF1FF3107
:10C2C0002CBF012000209A4202D9002800F02A81C8
:10C2D0008E469A1AA3B2B2FBF8F008FB102200FBBC
:10C2E00009F943EA0244A14507D93C1900F1FF339B
:10C2F00002D2A14500F210811846A4EB090440EADD
:10C300000E4000211DB1F4400023C5E90043BDE803
:10C31000F0878B4208D9002D00F0F2800021C5E99A
:10C32000000C0846BDE8F087B3FA83F100294ED12E
:10C330006345C0F0E880824240F2E5800846002D67
:10C34000E5D0C5E9004AE2E702B9FFDEB2FA82F6BB
:10C35000002E40F099808B1A4FEA124E1FFA82F895
:10C3600001214FEA144CB3FBFEF20EFB123008FB26
:10C3700002F94CEA004CE14508D917EB0C0C02F12C
:10C38000FF3302D2E14500F2CA801A46ACEB090C39
:10C39000A3B2BCFBFEF00EFB10CC08FB00F843EA96
:10C3A0000C44A0450ED93C1900F1FF332CBF4FF0CF
:10C3B000010C4FF0000CA04503D9BCF1000F00F0B8
:10C3C000A8801846A4EB080440EA02409AE7C1F1AD
:10C3D00020048B4002FA01FE0CFA01F6E24020FA3A
:10C3E00004F72CFA04FC00FA01F813433E431F0C37
:10C3F000320C1FFA83F9BCFBF7F007FB10CC00FBF3
:10C4000009FA42EA0C4CE24508D913EB0C0C00F196
:10C41000FF3202D2E24500F289801046ACEB0A0CF2
:10C42000B6B2BCFBF7FA07FB1ACC0AFB09F946EADD
:10C430000C42914506D99A180AF1FF3601D291456E
:10C440007AD8B2464AEA0040A2EB0902A0FB0E6786
:10C45000BA42B446B94602D307D1B04505D2B6EBCD
:10C460000E0C67EB030301389946002D6BD0B8EB37
:10C470000C0362EB090202FA04F4CB40CA4000212B
:10C480001C43C5E9004242E7B740C6F1200201FA69
:10C4900006F3B44021FA02FC4FEA174E20FA02F2EA
:10C4A0001FFA87F8BCFBFEF11A430EFB11CC01FB0F
:10C4B00008F0130C43EA0C4C604507D917EB0C0C41
:10C4C00001F1FF3301D2604533D81946ACEB000CC3
:10C4D00092B2BCFBFEF00EFB10CC00FB08F342EA6C
:10C4E0000C4C634507D917EB0C0C00F1FF3201D25D
:10C4F000634525D81046ACEB030340EA014130E721
:10C500002946284603E7841A6CEB030301209A4668
:10C5100015E702383C4455E702383C44EDE6023A60
:10C52000BC4433E7AEF1020E3B44D2E602389C44F1
:10C5300074E70239BC44C9E7AAF1020A1A4481E748
:10C540000238BC44D7E72946E1E600BF704700BF88
:10C5500073B520220DF107030C4603F093F905464D
:10C5600038B120220E4920460FF001F9284602B0CA
:10C5700070BD20460FF01CF92B462A46904204D18C
:10C58000984284BF0022E254F0E7A15CA1F12006AA
:10C590005E2E03D89A4218BFE15401330132EDE711
:10C5A000F1CE0100014608B504480BF08FFC044AA7
:10C5B000D2F80034DB07FBD508BD00BF04B0020091
:10C5C00000900340014601480EF0FEBCD4CC0100AF
:10C5D0002DE9F0413A4888B00EF0F6FC694639483A
:10C5E000FFF7B6FF18B138480EF0EEFCFEE737480B
:10C5F0000EF0EAFC69463648FFF7AAFF044618B178
:10C6000034480EF0E1FCF1E733480EF0DDFC04F5B0
:10C610002C301DF8041008300BF038FC00284BD0EB
:10C6200001340F2CF3D1224669462C480BF084FCD0
:10C630002B4AD2F80034D907FBD52A480EF0C4FCA7
:10C64000294B19684B1C0BD1284B29481D782946CA
:10C650000EF0BAFCFF2D2CD126480EF0B5FC02E0FE
:10C6600025480EF0B1FC25480EF0AEFCBEE7B4F84C
:10C67000057004F107083B4621792068424603F023
:10C6800077FB08EB0704074630B11D480EF09CFC11
:10C690003846FFF787FFE6E70136AE42E7D3194891
:10C6A0000EF092FC0020FFF77DFF17480EF08CFC87
:10C6B0009CE7164C0026F0E715480EF085FC95E740
:10C6C000F2CC010000CD01000ACD010035CD010002
:10C6D00058CD010060CD01007DCD010008B0020001
:10C6E00000900340AECE010004B0020018B002007A
:10C6F000CDCD0100E0CD01008FCD01007BCE01004A
:10C7000014CE01003ECE010054CE010019B002004B
:10C71000CACE0100032808B506D90BF0A1FC0923F5
:10C7200003604FF0FF3008BD034B53F83030002B4F
:10C73000F3D00020F7E700BFE801022070B50446FF
:10C740000D461646FFF7E6FF002809DB074B4DB103
:10C7500003EBC4025268AA4204D00BF081FC0660CD
:10C76000002001E053F8340070BD00BFE801022052
:10C7700038B504460D46FFF7CDFF0028A9BF054B8D
:10C78000002003EBC4025268A4BF53F834002A60AF
:10C7900038BD00BFE801022010B500244FF0FF3380
:10C7A0004FF0FF320C480CF011F90C4B53F83420C9
:10C7B0006AB10134042CF9D10BF052FC17234FF06D
:10C7C000FF34036004480CF0E9F9204610BD012253
:10C7D00043F83420F6E700BF24010220E8010220DC
:10C7E000034B43F8301003EBC0035A60704700BF9F
:10C7F000E80102200022024B43F83020704700BFBE
:10C80000E80102200B6801330B60014B1B681847DD
:10C81000000002202DE9F04F85B00E9C9B46012CB4
:10C82000B8BF0124012B0CBF3023202316468246BB
:10C83000884601250A270022DFF86C900293B6FB98
:10C84000F9F301930AB9B1451CD8019B414603F1A4
:10C850003000D04701220135019B013F09FB1366DF
:10C860000A23012FB9FBF3F9E9D1414606F1300063
:10C87000D047BBF1030F02D1641B002C0EDC05B0C6
:10C88000BDE8F08FBC42E7DBBBF1020FE4D84146C4
:10C89000029803920135D047039ADDE741462020F4
:10C8A000D047013CE9E700BF00CA9A3B014B186042
:10C8B000704700BF00000220002313B502AC44F80B
:10C8C000043D02460B46034821460EF005FA02B02D
:10C8D00010BD00BF05C800004FF02002EFF3118328
:10C8E00082F31188BFF36F8F0121044AC2F840150B
:10C8F00083F31188BFF36F8F0020704700900340CF
:10C9000020B1034B800143F001031847704700BF7B
:10C9100090C801002DE9F047DFF8A09006460F46C9
:10C920009046CA461E4C1F4D4C450CD91E499923B2
:10C930002A461E480EF048FB1D480EF045FB992183
:10C9400028460EF0BEFD544507D30BF089FB2F237C
:10C9500003604FF0FF30BDE8F0872368B34200D09A
:10C96000DBB9636863B913499F232A460F480EF069
:10C970002BFB11480EF028FB9F2128460EF0A1FD4D
:10C980006368424639463046984730B1A36842460C
:10C9900039463046BDE8F04718470C34C4E700BFBD
:10C9A0002CC801005DCF0100BCCF01003DCF0100CC
:10C9B000E9CF0100A2CF01005ACF010038C8010021
:10C9C00038B5054648B90C490C4813230C4A0EF0FB
:10C9D000FBFA13210A480EF074FD0A4C22684AB192
:10C9E000094906481423064A0EF0EEFA14210448B9
:10C9F0000EF067FD256038BD54D001003DCF010029
:10CA000008D001000802022058D0010010B50748E4
:10CA10000BF002FB064C074B1860204601F05EFC51
:10CA20002046FFF743FF002010BD00BF73D0010078
:10CA300039CA00000C0202200A2838B50446074D06
:10CA400004D1286883680D215B689847286883684B
:10CA5000E1B25B689847204638BD00BF0C02022057
:10CA600038B5CCB2012C054609D90B490B487F23B8
:10CA70000B4A0EF0A9FA7F2109480EF022FD0C2185
:10CA8000EB6804FB01314B7A23B9087AB0FA80F0E5
:10CA9000400938BD0220FCE726D101003DCF01004E
:10CAA000DAD001002DE9F84FCEB2012E804689463A
:10CAB000144609D93F494048EF23404A0EF084FA12
:10CAC000EF213E480EF0FDFCD8F804A0D8F80C7019
