:020000040000FA
:10000000900A0020D91200002D3C000019120000B7
:100010001912000019120000191200001912000034
:10002000191200001912000019120000F51000004A
:100030001912000019120000A11000002F3B00004F
:100040009912000099120000991200009912000004
:1000500099120000991200009912000099120000F4
:1000600099120000991200009912000099120000E4
:1000700099120000991200009912000099120000D4
:1000800099120000991200009912000099120000C4
:1000900099120000991200009912000099120000B4
:1000A00099120000991200009912000099120000A4
:1000B0009912000099120000991200009912000094
:1000C0009912000099120000991200009912000084
:1000D0009912000099120000991200009912000074
:1000E0009912000099120000991200009912000064
:1000F0009912000099120000991200009912000054
:100100009912000099120000991200009912000043
:100110009912000099120000991200009912000033
:100120009912000099120000991200009912000023
:100130009912000099120000991200009912000013
:100140009912000000000000000000000000000004
:10015000000000000000000000000000000000009F
:10016000000000000000000000000000000000008F
:10017000000000000000000000000000000000007F
:10018000000000000000000000000000000000006F
:10019000000000000000000000000000000000005F
:1001A000000000000000000000000000000000004F
:1001B000000000000000000000000000000000003F
:1001C000000000000000000000000000000000002F
:1001D000000000000000000000000000000000001F
:1001E000000000000000000000000000000000000F
:1001F00000000000000000000000000000000000FF
:10020000DEE61E284CBBCE8F015B000000800000A4
:100210000100000000000000D01300203D1A000083
:100220007BB972B90029BEBF00204FF0004106E043
:1002300008BF00281CBF6FF000414FF0FF3000F0F6
:10024000AFB9ADF1080C6DE904CE002909DB002B34
:100250001ADB00F035F8DDF804E0DDE9022304B034
:100260007047404261EB4101002B1BDB00F028F896
:10027000DDF804E0DDE9022304B0404261EB410116
:10028000524263EB43037047524263EB430300F077
:1002900017F8DDF804E0DDE9022304B0404261EB29
:1002A00041017047524263EB430300F009F8DDF867
:1002B00004E0DDE9022304B0524263EB43037047DC
:1002C0002DE9F0478C46089D04468A46002B4AD10A
:1002D0008A42174662D9B2FA82F64EB1C6F1200EB2
:1002E00001FA06F3B740B44020FA0EFE4EEA030AC4
:1002F0004FEA1748230C1FFA87F9BAFBF8FE08FBF0
:100300001EAA0EFB09F243EA0A439A420BD9FB18D4
:100310000EF1FF312CBF012000209A4202D90028A3
:1003200000F02A818E469A1AA3B2B2FBF8F008FBBD
:10033000102200FB09F943EA0244A14507D93C1900
:1003400000F1FF3302D2A14500F210811846A4EB60
:10035000090440EA0E4000211DB1F4400023C5E924
:100360000043BDE8F0878B4208D9002D00F0F280F1
:100370000021C5E9000C0846BDE8F087B3FA83F117
:1003800000294ED16345C0F0E880824240F2E5800A
:100390000846002DE5D0C5E9004AE2E702B9FFDED4
:1003A000B2FA82F6002E40F099808B1A4FEA124E74
:1003B0001FFA82F801214FEA144CB3FBFEF20EFB48
:1003C000123008FB02F94CEA004CE14508D917EB62
:1003D0000C0C02F1FF3302D2E14500F2CA801A464A
:1003E000ACEB090CA3B2BCFBFEF00EFB10CC08FB7F
:1003F00000F843EA0C44A0450ED93C1900F1FF3344
:100400002CBF4FF0010C4FF0000CA04503D9BCF1FC
:10041000000F00F0A8801846A4EB080440EA024050
:100420009AE7C1F120048B4002FA01FE0CFA01F6B2
:10043000E24020FA04F72CFA04FC00FA01F8134316
:100440003E431F0C320C1FFA83F9BCFBF7F007FB8D
:1004500010CC00FB09FA42EA0C4CE24508D913EB38
:100460000C0C00F1FF3202D2E24500F28980104606
:10047000ACEB0A0CB6B2BCFBF7FA07FB1ACC0AFBD2
:1004800009F946EA0C42914506D99A180AF1FF3655
:1004900001D291457AD8B2464AEA0040A2EB09025D
:1004A000A0FB0E67BA42B446B94602D307D1B045A5
:1004B00005D2B6EB0E0C67EB030301389946002D0D
:1004C0006BD0B8EB0C0362EB090202FA04F4CB40E8
:1004D000CA4000211C43C5E9004242E7B740C6F1CB
:1004E000200201FA06F3B44021FA02FC4FEA174E4B
:1004F00020FA02F21FFA87F8BCFBFEF11A430EFB4A
:1005000011CC01FB08F0130C43EA0C4C604507D9F1
:1005100017EB0C0C01F1FF3301D2604533D81946BB
:10052000ACEB000C92B2BCFBFEF00EFB10CC00FB5F
:1005300008F342EA0C4C634507D917EB0C0C00F1A9
:10054000FF3201D2634525D81046ACEB030340EAE5
:10055000014130E72946284603E7841A6CEB030380
:1005600001209A4615E702383C4455E702383C44DE
:10057000EDE6023ABC4433E7AEF1020E3B44D2E66C
:1005800002389C4474E70239BC44C9E7AAF1020A64
:100590001A4481E70238BC44D7E72946E1E600BFA8
:1005A000704700BF2DE9E04F2746A046A146A2466E
:1005B000A346A4462DED108B4FF0000545EC185BCB
:1005C00045EC195A45EC1A5A45EC1B5A45EC1C5A95
:1005D00045EC1D5A45EC1E5A45EC1F5AF1EE105AD7
:1005E0004FF66076C0F6FF763540E1EE105A84F3A0
:1005F000008825462646A447BDEC108BBDE8E08F59
:1006000082680C4B9A60036883F38888436883F39D
:100610008988027B02F00101EFF3948323F0030346
:10062000920748BF43F0020309B143F0010383F38B
:100630009488704700ED02E0084AD36848B123F47B
:1006400000531B041B0C43F0BF6343F40033D3601F
:1006500070479BB243F40053F5E700BF00ED00E0A4
:10066000084AD36840B19BB243F4804343F0BF6370
:1006700043F40033D360704723F480431B041B0C06
:10068000F4E700BF00ED00E0084AD36840B19BB238
:1006900043F0080343F0BF6343F40033D360704773
:1006A00023F008031B041B0CF4E700BF00ED00E07F
:1006B000034AD2F88C3043F44063C2F88C30704760
:1006C00000ED00E0084B1A6818B142F001021A6010
:1006D000704722F001021A601A6811B142F002025A
:1006E000F5E722F00202F2E7D0ED00E00B680133FB
:1006F0000B60014B1B681847D41300202DE9F04F05
:1007000085B00E9C9B46012CB8BF0124012B0CBF69
:100710003023202316468246884601250A270022D8
:10072000DFF86C900293B6FBF9F301930AB9B14577
:100730001CD8019B414603F13000D047012201350E
:10074000019B013F09FB13660A23012FB9FBF3F953
:10075000E9D1414606F13000D047BBF1030F02D189
:10076000641B002C0EDC05B0BDE8F08FBC42E7DB5B
:10077000BBF1020FE4D84146029803920135D047FD
:10078000039ADDE741462020D047013CE9E700BF5E
:1007900000CA9A3B014B1860704700BFD413002079
:1007A000002313B502AC44F8043D02460B4603484F
:1007B000214602F073FF02B010BD00BFED0600003D
:1007C0004FF02002EFF3118382F31188BFF36F8F94
:1007D0000121044AC2F8401583F31188BFF36F8FDB
:1007E00000207047009003500A2838B50446074D92
:1007F00004D1286843680D215B68984728684368DE
:10080000E1B25B689847204638BD00BF0800002071
:1008100010B5044C204601F019F82046BDE8104000
:10082000FFF7B8BFE907000008B5044801F0FEF97A
:10083000034B1860FFF7ECFF002008BDC74600001F
:100840000800002008B5114B1A686AB14FF0502219
:10085000D2F80823D10707D500220D481A60836813
:100860005B7A0BB903F046F90A4B1A6862B14FF094
:100870005022D2F80823920706D5002206481A60B3
:10088000BDE8084003F036B908BD00BF0051005074
:1008900084140020045100509014002000220D4BBD
:1008A000C3F840214FF02002EFF3118182F3118849
:1008B000BFF36F8F084AD3F804051368C01A20F0FD
:1008C0007F400344136081F31188BFF36F8F01F001
:1008D0002DBF00BF005001502400002070B5184803
:1008E00001F0A4F948B3436800211B68984701262A
:1008F00000244FF480334FF40012124D3146C5F8F6
:100900000845C5F84065C5F804330F4B15201C6039
:100910000E4BC3F88021224600F00CFC152000F09D
:10092000F9FB20460A4B1E602E60D5F8043533448F
:1009300023F07F43C5F8403570BD4FF0FF30FBE733
:10094000CE460000005001504051015000E100E04F
:100950000850015070B5214EB0F1FF3F08BF30463E
:100960004FF02003EFF3118483F31188BFF36F8FEF
:100970001B491C4BD1F804251D680138531B23F07B
:100980007F4301352B4420EAE070B042D4BF1818F1
:100990009819821A22F07F4220F07F43022AC1F880
:1009A000403504D984F31188BFF36F8F70BDD1F83F
:1009B00004350D4AC31A23F07F435D1E954205D9C5
:1009C0004FF40012094BC3F80021EBE7012B02BFE3
:1009D000023020F07F40C1F84005E3E7FEFFFF0052
:1009E0000050015024000020FEFF7F0000E100E0E5
:1009F0004FF02002EFF3118382F31188BFF36F8F62
:100A0000064AD2F80405064A1268801A20F07F4090
:100A100083F31188BFF36F8F704700BF0050015000
:100A20002400002008B543B2002B0CDB012200F0AB
:100A30001F018A405B091049203341F82320BFF38E
:100A40004F8FBFF36F8F830003F1A04303F5405333
:100A50003128D3F8002806D0002A07DA02F0030272
:100A6000023A012A02D8054AC3F80028002103F0FF
:100A7000AEF8002008BD00BF00E100E000010080EA
:100A800030B54FF440444CF2040585B04FF440417A
:100A90002C4802F07BFF21682B4802F077FF296881
:100AA0002A4802F073FF10220021684603F040F943
:100AB0002368684600930294FFF7A2FD0120FFF728
:100AC000CFFD0020FFF7B8FD0020FFF7DDFD01217D
:100AD0000020FFF7F7FDFFF7EBFD2C681C4802F044
:100AE00055FF0820FFF79EFF24F00104BFF34F8F4E
:100AF000BFF36F8F640864002046214622462346D8
:100B00009FED140ADFED130A9FED121ADFED111AA3
:100B10009FED102ADFED0F2A9FED0E3ADFED0D3A23
:100B20009FED0C4ADFED0B4A9FED0A5ADFED095AA3
:100B30009FED086ADFED076A9FED067ADFED057A23
:100B4000FFF730FD30480000474800005C480000D7
:100B50007A480000000000002DE9F8436F4802F0D9
:100B600015FF0021DFF800826D4F6E4D58F82140CF
:100B7000CA0301F5C07347F823406B4802F50043F0
:100B80004E1C02F003FF694B14F0100F68496948CE
:100B900008BF194602F0FAFE14F0040F14BF7221C8
:100BA0002D21284602F0F2FE14F0020F14BF772127
:100BB0002D21284602F0EAFE14F0010F14BF78211F
:100BC0002D21284602F0E2FE14F4807F14BF6C2130
:100BD0002D21284602F0DAFE574802F0D7FE202EDB
:100BE0003146C3D1554B4E4AC3F3C431C3F30E0350
:100BF000C3F50043C3F34313C2F80015C2F804352C
:100C0000D2F80015D2F804254D48520102F0BEFE7C
:100C1000494802F0BBFE02F08CFF014610B1494882
:100C200002F0B4FE444802F0B1FE474802F0AEFEC6
:100C30000021DFF838813A4F3A4D58F821404A03F5
:100C400001F5E07347F82340404802F500534E1C7D
:100C500002F09CFE354B14F0100F3549354808BFA3
:100C6000194602F093FE14F0040F14BF72212D21D7
:100C7000284602F08BFE14F0020F14BF77212D21BD
:100C8000284602F083FE14F0010F14BF78212D21B5
:100C9000284602F07BFE14F4807F14BF6C212D21C6
:100CA000284602F073FE244802F070FE202E3146E2
:100CB000C3D1214802F06AFE4FF6FF730024184D9D
:100CC0002348C5F8803402F061FEDFF8A480C5F83F
:100CD000C044DFF8A0901F4D05EBC406777955F8A6
:100CE0003420002F14BF43464B4621461A4802F0D9
:100CF0004DFE57B91948013402F048FE192CEBD1CA
:100D00000D48BDE8F84302F041BE3079FFF78AFE96
:100D100008B11348EFE71348EDE700BF0C470000A8
:100D200000300050444700002F470000F546000007
:100D3000EC46000019480000264A0000E07F000051
:100D4000474700008D470000BD470000DF47000017
:100D5000F3470000144400000F4800001C48000046
:100D6000234800002B48000094430000DC440000AE
:100D700001470000F946000010B500284BD0002ABA
:100D800049D0264B99423CD9541803F61D239C4266
:100D90003AD802F0A0FF0020BDE81040714672462C
:100DA0007346B7EE000AF7EE000AB7EE001AF7EE48
:100DB000001AB7EE002AF7EE002AB7EE003AF7EE77
:100DC000003AB7EE004AF7EE004AB7EE005AF7EEE7
:100DD000005AB7EE006AF7EE006AB7EE007AF7EE57
:100DE000007A8EF3008C10B4F1EE10CA4FF66074E6
:100DF000C0F6FF740CEA040CE1EE10CA10BCF44615
:100E00007447074B994203D9064B54189C42C0D9EA
:100E10004FF0FF30C0E76FF01500BDE70302FF00A1
:100E20002F01FF003801FF002DE9F04F844685B007
:100E30000F4600296AD0002445F6013ADFF8D8E0D1
:100E4000344EDFF8D880DFF8D89001AD5EF824B0DA
:100E500096E807000CEB0B0385E807009A0744D1DE
:100E60005CF80B20424505D15A684A4502D19A6880
:100E7000524544D00134032CE8D16FF00D0005B089
:100E8000B7EE000AF7EE000AB7EE001AF7EE001A06
:100E9000B7EE002AF7EE002AB7EE003AF7EE003A76
:100EA000B7EE004AF7EE004AB7EE005AF7EE005AE6
:100EB000B7EE006AF7EE006AB7EE007ABDE8F04FD1
:100EC000714672467346F7EE007A8EF3008C10B4CA
:100ED000F1EE10CA4FF66074C0F6FF740CEA040C11
:100EE000E1EE10CA10BCF44674470022985CA95C7D
:100EF0008842BFD101320C2AF8D1002BBAD020226F
:100F00001946384602F0E7FE0020B8E76FF01500FA
:100F1000B5E700BF344300005C450000DEE61E2854
:100F20004CBBCE8F014801F061BE00BF6845000098
:100F300008B530B143683BB1006801F065F80020A6
:100F400008BD6FF4E040FBE70048F9E7EA8FFFFFD8
:100F500008B558B1436863B100684FF0FF3100F045
:100F6000E1FF0028044808BF002008BD6FF4E040FE
:100F7000FBE70248F9E700BFE98FFFFFEA8FFFFFB9
:100F800038B5044618B90B4B0B485B689847656841
:100F900055B115F00205206807D10146074800F059
:100FA00093FF25600023636038BD1422002102F006
:100FB000BFFEF7E728140020984900002800002011
:100FC00010B5044618B9134B13485B68984763681B
:100FD000BBB92368ABB94FF0FF3221460F4800F090
:100FE00045FF08B923681BB90A4B0D485B68984751
:100FF00014220021206802F09BFE636843F0020384
:101000006360206802F02CFF636843F001036360B3
:1010100010BD00BF281400209849000028000020BF
:10102000BE49000008B5064940230648142202F0D4
:1010300005FFBDE808400449044801F00FBE00BFA9
:10104000440000202800002080450000704500007A
:1010500004488168406A884203D003494FF08052B7
:101060000A6070473006002004ED00E0094A0A4992
:10107000936809685866996608494B6843F080533D
:101080004B60002383F31188BFF36F8F9368986ED2
:10109000704700BF30060020C445000000ED00E0AE
:1010A00012498A684FF028001044EFF3098C80E859
:1010B000F01F202080F31188BFF36F8F0C4F4FF08B
:1010C00000664A6A8A603E60506E0023536680F371
:1010D000118804B5104602F0B0FDBDE8044002F1ED
:1010E000280090E8F01F8CF3098870473006002034
:1010F00004ED00E01EF0040F0CBFEFF30880EFF3E7
:101100000980816911F8021C0229FFD001B502F0A3
:1011100089FD01BD43B2002B08DB012200F01F0056
:1011200002FA00F0024A5B0942F82300704700BF50
:1011300000E100E043B2002B01F10101A8BF03F17F
:1011400060434FEA4111B8BF054BC9B2ABBF03F5CD
:10115000614300F00F0083F800131954704700BF7B
:1011600014ED00E02DE9F0418C18884617461E4624
:1011700004220A9B0999054602F04FFF00220D49FF
:10118000A4F1200323F0070321F00101C5E9132294
:10119000C5E91687996106991E605960079999609B
:1011A0000899D9604FF08071D961AB646A66BDE877
:1011B000F08100BF69360000F8B51E4605460C46B2
:1011C00017460023E1EE103A00F0B0F90B4B3C4417
:1011D00028469D6024F0070402F02FFD304684F37A
:1011E000098863B64FF0000181F31188BFF36F8F58
:1011F00000210022002302F037FA00BF3006002051
:10120000014910220A60704710ED00E0404080F371
:10121000118830BF704700BF404080F311884FF005
:1012200004007146014202D0EFF3098001D1EFF3CF
:101230000880714601B500F0D1F801BD30BFFFF75D
:10124000FDBF00BF114A08B5114B22F07F029A6022
:10125000BFF34F8FBFF36F8FD3F8882042F4A00203
:10126000C3F888200B4A536823F040435360BFF310
:101270004F8FBFF36F8F0023E1EE103A00F016FDA1
:1012800000F01EFD00F020F900F04CFD0000000011
:1012900000ED00E030EF00E001B572B60B4A106AD5
:1012A00000281EBF0021116202F0C6FD62B6EFF3F6
:1012B0000580A0F110004FEAC0000549014409C9AA
:1012C0009847BDE801400349084700003006002068
:1012D000B44000005110000002F066FB202080F3B3
:1012E000118808484FF40061401880F30988EFF333
:1012F00014800221084380F31488BFF36F8FFFF737
:10130000A1FF0000D00B00200C4B9A6A9A6A9A6ADF
:10131000920708D55A6B9A6A120604D518B19A6AD0
:1013200022F080029A6200209A6A9A6A9A6A9A6AFD
:1013300042F0FF029A620870704700BF00ED00E0C3
:101340000D4B9A6A9A6A9A6A920508D59A6B9A6ABC
:10135000120404D518B19A6A22F400429A6200205D
:101360009A6A9A6AD205044A58BF9B6A936A43F400
:101370007F4393620870704700ED00E0074B002048
:101380009A6A9A6A9A6A9A6A9A6A9A6A9A6A9A6A3D
:101390006FEA02426FEA12429A62704700ED00E083
:1013A0000D4B9A695A695A69D0070FD45A69910747
:1013B0000CD45A69520709D45A69100706D45A69DD
:1013C000D10603D45A69920658BF5A695A6942F045
:1013D000FF025A61704700BFD0ED00E037B5044608
:1013E000314A01F07F40B0F17F4F536859D111F07D
:1013F00001000AD0480611D411F0080009D0EFF31B
:101400008984506810F4006008D1214602F008FC7D
:1014100025E0EFF3888452681105F6D40022C3F367
:101420000803033B8DF80720042B30D8DFE803F0D6
:10143000033135262D001C4BDA6A920727D4D86A6F
:1014400010F0804007D028331B7853B101200DF1F4
:101450000701FFF759FF9DF80730002BD5D003B0E7
:1014600030BD124B1B782BB101200DF10701FFF7A6
:1014700067FFF0E70E4B188885B215B1FFF77EFFC6
:10148000E9E70C4B58690028E5D0FFF789FF0020F9
:10149000E1E70DF107010020DBE70DF10701002076
:1014A000E5E70020B1E700BF00ED00E029ED00E036
:1014B0002AED00E0D0ED00E0024A536943F010034A
:1014C0005361704700ED00E0002320210348C2185B
:1014D0000133412B82F80013F9D1704700E100E09D
:1014E00038B505464FF02003EFF3118483F31188DC
:1014F000BFF36F8F02F072FD0A4B9B68AB420BD1BA
:10150000094B5A68C2F3080212B92046FFF7AEFD34
:101510005A6842F080525A602046BDE8384002F0D6
:10152000D6BC00BF3006002000ED00E010B50E4B29
:1015300088B002930D4B0E4C03930E4B08A80493F6
:1015400002AB40F81C3D0C4A2346012100F002F991
:1015500000230793094B0121E41A05A8059306947B
:1015600000F002F908B010BD0000002000000000EB
:101570000000012006000100000000200000002003
:1015800010B50B680C7A23F01F0304F01F021A43F6
:10159000CB68640923F01F03044943F0010343EAC5
:1015A00044038860CA600B6110BD00BF90ED00E08D
:1015B0002DE9F04F8046894614460027484D85B0F6
:1015C0004F4507DA58F827305E68C6B31F2E05D896
:1015D0006FF01504204605B0BDE8F08FF206F7D194
:1015E000D3F800A01AF01F0FF2D1504601F0E7FF28
:1015F000834606EB0A00013801F0E1FF8345E7D19D
:101600001BF1160FE4D0631E5B45E1DBC5F808B0A3
:10161000E86858F82710C5F808B02E6920F01F00B8
:10162000D1E900321A44984246F01F0602F1FF3A0F
:1016300018D1564505D15FFA8BF002F006FB013751
:10164000BEE7C5F808B0EB6822F01F0203F01F03E5
:101650001A43EA60E0B202F0F8FA10F1160FB7D0C0
:10166000441CECE7C5F808B02A69013B23F01F03CE
:1016700002F01F0213435645E0B22B61EBD002F09B
:10168000E4FA10F1160FA3D0C5F808B0EA689DF887
:101690000830013E62F304038DF808302B699DF891
:1016A00008205B0863F347128DF8082058F82720BC
:1016B0000130D2E900321344009323F01F031E448B
:1016C000A6EB0A06C4B226F01F060F2C03963FF6BF
:1016D0007FAF20466946FFF753FF0134AFE700BFF5
:1016E00090ED00E00522034B5A60BFF34F8FBFF32C
:1016F0006F8F704790ED00E0BFF35F8F0022014BCA
:101700005A60704790ED00E070B50E4D2E68102EB7
:1017100015D80024FFF7F0FF0B4B0C4A1A63A642C2
:1017200005D10B4B1E70FFF7DDFF002070BD69680F
:10173000204601EB0411FFF723FF0134EFE74FF0E0
:10174000FF30F3E74043000090ED00E0AAFF4400C3
:101750008C06002010B5034C2278FFF729FF20707B
:1017600010BD00BF8C0600202DE9F74F89460746C3
:101770000026DFF89080DFF890A0214C4E4519DA62
:10178000D7F804B0BBF1000F36D03B681846019380
:1017900001F015FF019B05460BEB0300013801F03A
:1017A0000EFF1423854203FB06F306D06FF01502EB
:1017B00048F8032003B0BDE8F08F15F1160F48F884
:1017C0000350F7D09AF80020AA42F3DDA560434405
:1017D000A560E068197B60F3040119732169187B27
:1017E000490861F347101873E26822F01F025A603B
:1017F000226922F01F021A6101360C37BEE700BFD2
:1018000090ED00E0440500208C06002070B50C4BE4
:101810000E461C780546234600210A4A0F2B0BDD95
:10182000094B191D1868FFF7ABFE224631462846C2
:10183000BDE87040FFF7BCBE936011610133EDE776
:101840008C06002090ED00E044050020014B18605C
:10185000704700BFF8130020F0B54B79012B29D059
:10186000032B24D101268B79032B20D1CD792DB1E7
:10187000012D1CD103689B681B79C3B10A7912B191
:10188000022A14D10E2247F6122703689B681C68AF
:101890000B68BB4274D029D8B3F5965F6AD014D8D0
:1018A000B3F5167F4FD007D8B3F5967F7DD06FF094
:1018B00022005BE00026D6E7B3F5966F57D0B3F56C
:1018C000166FF4D14FF41D233FE0B3F5615F53D0A1
:1018D00004D8B3F5165FEAD1354B36E0B3F5964F31
:1018E0004CD0B3F5E14FE2D1324B2EE0B3F5E13FFE
:1018F0004FD012D84DF6C027BB4244D005D8B3F51F
:10190000164FD4D14FF41D031FE0B3F5614F3DD006
:10191000B3F5963FCBD1284B17E0B3F5E12F3ED07E
:1019200008D8B3F5613F37D0244FBB42BFD14FF049
:1019300080630AE0B3F5612F34D0214FBB42B6D1AA
:101940004FF0805301E04FF41C332A43C4F8243590
:10195000C4F86C252EB1D4F86C3543F01003C4F8EC
:101960006C35836803C983E803000020F0BD4FF4A1
:101970009E23EAE7134BE8E7134BE6E7134BE4E754
:101980004FF40003E1E74FF46503DEE74FF46B0328
:10199000DBE74FF0EB73D8E74FF06C73D5E74FF010
:1019A000E863D2E74FF07063CFE74FF4A033CCE7A2
:1019B0000050270000C0750000903A0190D003004D
:1019C00040420F0000B0130000F03A0000A04E00AB
:1019D000026870B59268184B14684FF00052856821
:1019E00003219A601D260022C3F87412C3F87022E6
:1019F000C4F80C651C26C4F814654FF000669E60A0
:101A0000C3F86C12C3F868221B23C4F808351A23E4
:101A10002946C4F81035FFF71FFF58B90823C4F84A
:101A200000351D440123C4F81001C4F83455C4F82E
:101A30003835236070BD00BF00258450F0B5DAB1A1
:101A400000231C460E4E0F4FB34206D3002C14BF8A
:101A50006FF008006FF0010009E057F82350D5F847
:101A60000CC0604506D14C1E11B908461560F0BD8A
:101A7000214601240133E7E76FF00D00F7E700BFCF
:101A800000000000344A0000524A136843F0020389
:101A900013600022D30003F57F03D3F80013013154
:101AA00008D0D3F800130132D3F80433B2F5807FA5
:101AB0000B60EFD1484AD36913F001033BD0474B89
:101AC0001946D3F80024012AFBD1C3F80425D1F824
:101AD0000034012BFBD1404BDA69D20708D5DA6913
:101AE0003E4922F00102DA61D1F80024012AFBD13B
:101AF0001A6A01320AD11A6A22F0FF0242F0200269
:101B00001A62364AD2F80034012BFBD10022334B43
:101B1000C3F80425D3F80024012AFBD1BFF34F8F6B
:101B20002F49304BCA6802F4E0621343CB60BFF325
:101B30004F8F00BFFDE7126A0132C0D02A4A1168F8
:101B400009290AD129490968013901299EBF4FF0A5
:101B50005021C1F81431C1F818311368092B09D18B
:101B6000224B1B68012B01BF214A1360A2F63822C9
:101B7000C2F878351C4B1A68092A0BD11B4A126827
:101B8000022A07D100211A4A11600121A2F6382247
:101B9000C2F878151B68092B06D1144B1B68022B61
:101BA00002BF0C22134B1A600D4BD3F88C2042F469
:101BB0004062C3F88C20D3F8882042F47002C3F846
:101BC0008820BFF34F8FBFF36F8F0B4B0B4A1A6008
:101BD000704700BFD0ED00E00080FF000090035090
:101BE00000ED00E00400FA053001FF003401FF00C1
:101BF000384A0050E4AE0350081400200090D0038F
:101C000070B50026084B53F82040013053F820509F
:101C1000A54200D870BD236820465B68984700B194
:101C200066600C34F4E700BFB0450000104B70B59F
:101C300005461E460F4C9C4204D10E4CB44209D1BD
:101C4000002412E062681AB122681268AA420CD01D
:101C50000C34F0E763680BB90C34EFE723682846CF
:101C6000196802F014F80028F6D1204670BD00BFB4
:101C7000CC1400205414002008B50B4D4FF0200266
:101C8000EFF3118382F31188BFF36F8F02F0E3F952
:101C9000012104460228D8BF084602F0ECF92C6264
:101CA000FFF7B4FAEAE700BF300600200248034A13
:101CB0000021121A02F03CB800000020900600201B
:101CC00008B50648064A0749121A02F004F8BDE8AA
:101CD0000840054A0549064801F0FDBFD41300201D
:101CE00030150020344A000000000000344A000093
:101CF0000000002008B50220FFF782FF074801F02E
:101D000045FE0320FFF77CFF00F036FC01F050FC9D
:101D1000034A137B23F00103137308BDF649000047
:101D2000C405002080B5374BA2B083F30888002596
:101D3000E023354C012784F82230E5772576657657
:101D4000A576E576636A314E43F4E0236362636A05
:101D500043F400236362A563FFF7AEFBFFF750FA7D
:101D60004FF0FF33A362E36207AB6C2229461846AB
:101D700001F0DEFF264C8DF82970A0602846FFF7A1
:101D80003FFF3846FFF73CFF00F0A6FB214B6662A1
:101D90004FF48062CDE90473CDE902551E4BCDE9C5
:101DA00000551E49304600F0CDFB737B23F0040242
:101DB00013F01B0F727304D1B36913B9304600F0EE
:101DC0001BFA174B012205930F23CDE903320023A1
:101DD000144DCDE9013300934FF4A072124B134917
:101DE000284600F0AFFB6B7BE56023F004036B73C8
:101DF0000F4B4FF48062C4E906330849064B034891
:101E0000FFF7DAF9D013002000ED00E0C405002050
:101E100030060020284A0000F51C00009006002033
:101E20002D4A000058050020791C0000900A00206F
:101E30004806002070B500240A4B0B48834201D3AA
:101E4000002070BD00211A699D685C61A94201D122
:101E50001C33F3E75E6901311660DE685A61324473
:101E6000F4E700BFCC140020CC14002010B51346BA
:101E70000C464FF02002EFF3118182F31188BFF37B
:101E80006F8F426962B1226043691B684361836955
:101E900001338361002081F31188BFF36F8F0DE060
:101EA0001BB923606FF00B00F5E70246044800F011
:101EB000BDFA18B9034B9B685B69236010BD00BF76
:101EC0008D0600203006002070B504460D464FF008
:101ED0002003EFF3118683F31188BFF36F8F02F0B5
:101EE00047F880B100212A6881664261427BD206B0
:101EF00003D183690BB900F07FF93146BDE870402A
:101F0000074801F0D5BF2B6862691A602B686361CE
:101F1000A369013BA36186F31188BFF36F8F70BD86
:101F20008D060020F8B504460F464FF02003EFF36E
:101F3000118583F31188BFF36F8FC26830495AB19E
:101F400080688E68B04215D0B7B985F31188BFF3A9
:101F50006F8F6FF00F000CE08B6893F90E302361E8
:101F60008B680132E260A36085F31188BFF36F8F45
:101F70000020F8BD2369F2E790F90E3096F90E10B3
:101F80009942A8BF194621EAE17199422BDA00F083
:101F900061FA06463B46224629461A4800F046FAB0
:101FA0000028E6D04FF02003EFF3118583F311886A
:101FB000BFF36F8F236821699C4207D033B193F937
:101FC0000E309942A8BF194621EAE171A06890F944
:101FD0000E30994209D16EB129460A4801F068FFD6
:101FE0006FF00A00C5E70026D4E700F033FA0028B6
:101FF000F2D1F0E785F31188BFF36F8FF0E700BFF0
:10200000300600208D0600201E4B70B59A680446ED
:10201000D37B013BD373C368012B05D0013BC36065
:10202000BDE8704000F0CCB84FF02003EFF311860C
:1020300083F31188BFF36F8F0169806890F90E30C8
:10204000994201D000F006FA204601F091FF0546C2
:10205000A06080B1437BDB0603D183690BB900F03C
:10206000CBF886F31188BFF36F8F0023AB6695F929
:102070000E302361D4E7E06086F31188BFF36F8FE1
:10208000CEE700BF30060020EFF305800D2809D809
:1020900028B1054B586880F40060C0F3C02080F080
:1020A000010070470120FAE700ED00E010B5084C90
:1020B00023685BB1FEF79CFC2368064A1844106154
:1020C0000021BDE81040184601F0D5BF10BD00BF8B
:1020D0006806002030060020F8B50D464FF02003BA
:1020E000EFF3118483F31188BFF36F8F4FF4004136
:1020F00040F2E73600270022C1FB0067094B30465B
:102100001A6139464FF47A720023FEF789F8064BBC
:102110001860064B1D60FFF7C9FF84F31188BFF3F9
:102120006F8FF8BD3006002068060020640600208E
:102130004FF02003EFF3118183F31188BFF36F8F0A
:10214000044B9A68D37B013BD37381F31188BFF3AF
:102150006F8F704730060020094B03F1280282423E
:1021600005D19B688B4202D14B7BDB0607D1D1E9BD
:1021700000231A600A6853600023C1E900337047E6
:102180003006002038B50D4C024604F1280001F05D
:10219000B8FE054600B9E568A3684AB95A7BD2067D
:1021A00006D1AA6922B9DA897F2A01D9636238BDCA
:1021B0009D4201D0FFF77AFF6562F8E73006002004
:1021C00010B54FF02003EFF3118483F31188BFF3B0
:1021D0006F8F084B00209A68D37B0133D373FFF7CE
:1021E000D1FF84F31188BFF36F8FBDE8104001F079
:1021F0007EBE00BF30060020F8B54FF02003EFF39D
:10220000118483F31188BFF36F8F164A114651F87A
:10221000283F8B420CD05BB1D66A90F90E5093F9EF
:102220000E70AF420BDCB34202D01B68002BF6D11C
:10223000D36A01604360D36A1860D06205E05A68CF
:10224000C0E900325A6810605860437B43F0400395
:1022500043730020FFF796FF84F31188BFF36F8F5D
:10226000F8BD00BF30060020F8B504464FF020034B
:10227000EFF3118583F31188BFF36F8F437B5A0609
:1022800003D501461848FFF767FF184A02F12801F5
:10229000D2E90A308B420BD053B194F90E6093F916
:1022A0000E70B7420ADC834202D01B68002BF6D1C5
:1022B000C4E90010D36A1C60D46205E05968C4E91F
:1022C000003159680C605C60637B906843F04003A8
:1022D0006373031B58425841FFF754FF85F311887D
:1022E000BFF36F8FF8BD00BF5806002030060020F6
:1022F000154A164938B50C689368A342144603D1B1
:10230000BDE83840FFF7D2BE00250D6010490968CE
:10231000B9B1D9897F2914D80E4993F90E500968AB
:102320008D420EDB0C498B420BD0996949B911697A
:10233000814203DC1846FFF797FFE1E7091A1161B4
:1023400038BD00232361FBE7300600206006002033
:1023500068060020640600205805002038B50446B1
:102360004FF02003EFF3118583F31188BFF36F8FD4
:10237000437B5A0607D501460948FFF7EDFE637B0C
:1023800023F040036373074B9868031B584258417E
:10239000FFF7F8FE85F31188BFF36F8F38BD00BFDC
:1023A000580600203006002070B504460D4616463B
:1023B000FFF7D4FF637B43F002036373EDB12B6837
:1023C000A5609D420CD05BB194F90E2093F90E10DC
:1023D00091420CDC69688B4202D01B68002BF5D15E
:1023E0006B68256063606B681C606C6005E05A6810
:1023F000C4E900325A6814605C60731C13D04FF457
:10240000004540F2E73000214FF47A72C5FB060127
:102410000023FDF705FF0449421C04F11800BDE844
:10242000704000F03FB970BD0F3F000010B50C4682
:102430001146064A9068064A10601A46FFF7B4FF34
:102440002046BDE81040FEF711BE00BF3006002058
:10245000600600202DE9F84304464FF02003EFF317
:10246000118983F31188BFF36F8F01F0FFFC4EB227
:10247000804668B3174D214605F128073846FFF717
:102480006BFEAB6AA673BB422A460AD04BB1E96A1F
:1024900093F90E00B0420BDC994202D01B68002B6E
:1024A000F6D1D36A27606360D36A1C60D46205E00A
:1024B0005A68C4E900325A6814605C600120FFF772
:1024C00061FE89F31188BFF36F8F4046BDE8F88342
:1024D000A673F6E7300600200021044B084603F1FE
:1024E0002802C3E90A22FFF7F7BD00BF300600202B
:1024F000014B9868704700BF3006002010B50246B7
:102500004FF02003EFF3118483F31188BFF36F8F33
:10251000437B590704D484F31188BFF36F8F10BD38
:1025200023F00403437301F050FD10B11046FFF790
:1025300063FE2146BDE81040014801F0B9BC00BF70
:102540008D06002030B587B00E9D044604950D9D84
:1025500003950C9D02950B9D01950A9D0095FEF734
:1025600001FE044B9B6813B9236607B030BD1B6E98
:10257000FAE700BF300600202DE9F04F284E294D24
:10258000B04687B0B54205F1300410D3FFF7D0FD57
:102590004FF4004940F2E7360027224CDFF888A0CC
:1025A000444521D307B0BDE8F04FFFF709BE54F80A
:1025B000043C059354F8103C049354F8143C0393E2
:1025C00054F8183C029354F81C3C019354F8203CF6
:1025D000009354E90A2354E90C01FFF7B3FF54F8C0
:1025E000303CDD642546CDE7616A4B1C04D025688C
:1025F00021B92846FFF782FF3034D1E7B346BC4605
:10260000C9FB01BC4FF47A72002358466146FDF7BE
:1026100007FE5146421C05F1180000F043F8EBE7B5
:10262000CC140020CC1400200F3F0000034B1B688B
:102630000BB9FEF7DDB90020704700BF6C06002023
:10264000036840B1084A5268904204D01BB19A68AE
:1026500081680A449A604268136003685A600023E4
:10266000C0E90033704700BF0C1400200B4B10B5BD
:102670001C689C4208BF0024FFF7D8FF54B1A36830
:10268000181A20EAE070064B1B6913B19842A8BFE4
:10269000184610BD6FF00040F5E700BF0C14002095
:1026A0003006002070B504461646C1604FF0200386
:1026B000EFF3118583F31188BFF36F8FFFF7B6FF38
:1026C000012EACBF80190130174BA0601A689A42E6
:1026D00001D05E6832B95A68236062605A6814603B
:1026E0005C600BE09068A168884216DD411A916039
:1026F0005168C4E9002151680C6054601A689A421C
:1027000006D0944204D1FFF7B1FF0021FEF722F971
:1027100085F31188BFF36F8F70BD091A9642A160CF
:10272000D9D01268D6E700BF0C1400202DE9F04B79
:102730000446FFF7DDFD4FF02003EFF3118583F32F
:102740001188BFF36F8F214F214EB846DFF8849078
:102750003460D9F8004032684C45D7E900BC05D058
:1027600024B1A368934214DD9B1AA36000241BEBE1
:1027700002004CEBE271C8E900013460FFF776FF1C
:102780002146FEF7E7F885F31188BFF36F8FBDE8A8
:10279000F08B1BEB03004CEBE371D31A3360002387
:1027A000C7E90001A3602046FFF74AFF85F31188BF
:1027B000BFF36F8FE36898474FF02003EFF3118565
:1027C00083F31188BFF36F8FC3E700BF00000020C1
:1027D0006C0600200C14002038B5074C074DAC42A5
:1027E00001D3002038BD04F114032046C4E90533A9
:1027F00000F0EEFE1C34F2E7CC140020CC140020D4
:1028000001F052BA0A46002101F092BA10B51148FF
:1028100000F048F800B110BD0F4800F043F8002860
:10282000F9D10E4C204600F03DF80028F3D10C4BB6
:102830000C481C6000F036F801460028EBD100F08F
:102840002DF8044608B1204610BD00F051F820468E
:10285000FAE700BF20140020141400201C140020EC
:10286000241400201814002008B5084800F024F8AB
:10287000074800F021F8074800F01EF8064800F06D
:102880001BF8BDE8084000F00BB800BF2014002082
:10289000141400201C14002018140020002070477D
:1028A000704700BF08B5034B02681B681068984763
:1028B000002008BD3014002008B5034B02685B6897
:1028C00010689847002008BD301400200268024BB1
:1028D00010689B68184700BF3014002008B5034BF0
:1028E0000268DB6810689847002008BD301400209B
:1028F00070B5094C094D2069AB68984718B1084B71
:1029000008485B6898470021074AEB681160206916
:10291000BDE87040184700BF40140020301400206C
:1029200028140020C84500007006002070B5144C23
:10293000144D0646AB6820699847F0B9124A1368EF
:102940005EB91BB901201149C1F8000501331360BC
:10295000EB6820699847002070BD002BF8D0012B50
:1029600008BF0A4903F1FF3308BFC1F80005206919
:102970001360EB6898470020EEE7054870BD00BF84
:102980004014002030140020700600200000845005
:10299000E98FFFFF0020704700207047430503D5F3
:1029A0004FF0FF32024B1A60024B1860704700BFB5
:1029B00008118450081A8450014B1860704700BFFA
:1029C000041A845008B100F003B84FF47500704742
:1029D0000246074803681342FCD021B1054B064864
:1029E0001B680B600360054B00201A60704700BF36
:1029F000001A84500411845008118450081A84501D
:102A000000F0A0B830B129B10023014403700130B7
:102A10008142FBD1704700BF2DE9F041ADF51A7D31
:102A20000F4605920021144612A84FF408721E4664
:102A300001F07EF9002308A819462822069301F028
:102A400077F9002F3CD0002E3AD0002C38D004214A
:102A500006A8FFF7D7FE08A82821FFF7D3FE08A88D
:102A600000F032F878B14FF0FF3512A84FF408713A
:102A7000FFF7C8FF06A80421FFF7C4FF28460DF59D
:102A80001A7DBDE8F08112AB0DF11C080390CDE971
:102A90000163024605AB08A9CDF8008006A800F046
:102AA000E9FC0028DFD13368A342DCD3D8F800105A
:102AB0000546083138462246FFF7A2FE3460D4E7C7
:102AC0004FF0FF35DAE700BF1C2330B583B002A911
:102AD00041F8043D044600F0B1F90546D8B9019B20
:102AE0001C2B1BD1D4E9003201210033E16118BF56
:102AF00001230AB143F00203A26832B9E268AAB91D
:102B0000C4E908323BB90D4D09E0E26843F0040323
:102B100062B9C4E90832284603B030BD084D2046EA
:102B20001C21FFF76FFE284603B030BD0022284667
:102B300043F00803C4E9083203B030BD0E0CF000C6
:102B4000370CF00010B50C4C236813B10B4B1B680D
:102B50006BB900F031F938B10138062896BF084B3F
:102B6000084853F8200010BD0122044B1A600123CD
:102B70000020236010BD00BF7406002078060020EE
:102B8000E8450000FE8FFFFF10B5094C23681BB11C
:102B900001230020236010BD00F07CF80028F7D04E
:102BA0000138062896BF034B034853F8200010BD98
:102BB00074060020E8450000FE8FFFFFBFF34F8F33
:102BC0000549064BCA6802F4E0621343CB60BFF3C9
:102BD0004F8F00BFFDE700BF00ED00E00400FA05E5
:102BE000014B5B68184700BF28140020024BD0E956
:102BF0000012C3E90012704728140020704700BF7C
:102C000010B5044620B1BFF35F8F0020206010BDD7
:102C10000348FFF7E5FFBFF35F8F0020206010BD82
:102C20002846000010B5044610B10023236010BDF3
:102C30000248FFF7D5FF0023236010BD04460000C3
:102C400050B10122D0E8EF3FC0E8E12F0029F9D1CF
:102C5000012BF7D0BFF35F8F0020704770B40B4B90
:102C60000668C268D0E90154C3E90242C3E90065BD
:102C7000D1E903020E68064BD1E90154C3E90065AE
:102C8000C3E902401A6170BC704700BF30140020D5
:102C90004014002010B5FFF77DFE70B9FFF7B6FDB8
:102CA00080B9FFF743FE80B9114B1B681B0EF02B58
:102CB0000DD00624FFF770FE00E00324FFF7D4FDDB
:102CC000204610BD0424204610BD0024F2E7094A26
:102CD000094B12689A4201D00724EBE70120FFF765
:102CE00025FE0028F1D1054B04461860E8E700BF37
:102CF00028198450241A84500000E0200C1A8450B3
:102D000030B5ADF5157D4FF4087200210CA801F027
:102D10000FF8002302A819462822019301F008F8B1
:102D200002A8FFF7D1FE18B105200DF5157D30BDC5
:102D30001C4D4FF0FF312868FFF7C8FD0446F0B97D
:102D40000020FFF7F3FDB0B90CAA02A901A800F01A
:102D5000D5FB04460120FFF7E9FDF0B92868FFF72D
:102D6000BDFD10B11048FFF73BFF2046002CDBD122
:102D70000DF5157D30BD0D48FFF732FFE4E70C4837
:102D8000FFF72EFF012CDBD12868FFF7A7FD0028F5
:102D9000CAD00548FFF724FFC6E70648FFF720FF23
:102DA000DCE700BF241400206046000078460000E5
:102DB000484600009846000008B5FFF7EBFD18B143
:102DC000FFF752FD032008BDFFF720FD68B9FFF7AC
:102DD000ADFD60B9154B1B681B0EF02B12D0FFF731
:102DE000DBFDFFF741FD062008BD042008BDFFF70D
:102DF000D3FDFFF739FDFFF783FF00280CBF00204C
:102E0000052008BD0A4A0B4B12689A4205D0FFF70D
:102E1000C3FDFFF729FD072008BD0120FFF786FD50
:102E20000028E4D1044B1860E5E700BF281984505E
:102E3000241A84500000E0200C1A845018B111B1FB
:102E40000B681C2B01D0012070474FF47F033A4AD6
:102E5000D3F8101C91425AD0D3F8102C013256D01E
:102E6000D3F8102C4FF47F030260D3F8141C334ABC
:102E700091425ED0D3F8142C01325AD0D3F8142CDE
:102E80004FF47F034260D3F8182C12F5947F4DD095
:102E9000D3F8182C013249D0D3F8182C4FF47F0303
:102EA0008260D3F81C1C264A91423CD0D3F81C2CDB
:102EB000013238D0D3F81C2C4FF47F03C260D3F812
:102EC000002C70322DD0D3F8002C013229D0D3F849
:102ED000002C4FF47F030261D3F8042CAF321ED0D4
:102EE000D3F8042C01321AD0D3F8042C4FF47F030A
:102EF0004261D3F8081C134A91420BD0D3F8082C36
:102F0000013207D0D3F8083C83610020704740F6B7
:102F1000FC02A7E740F2373383610020704751225B
:102F2000E4E79022D5E742F60412C5E740F6D862FE
:102F3000B4E742F2D002A3E7FCF8FFFFD020FFFF86
:102F40000429FFFF37F3FFFFA8B32DE9F0414C1E22
:102F5000B4F5047F2CD25BB352B34FF0000CC90020
:102F6000E646654664464F1E03F1FF380CE0AB426F
:102F700016D08E4501D10CF1010CA84516D00134B4
:102F8000BC4205F1010518D8610950F8211004F080
:102F90001F06F1401F2E18BF01F00101002CE6D1E1
:102FA0000025A8458E464FF0010CE8D16245E6D2D7
:102FB0000348BDE8F081024870470020BDE8F08179
:102FC000370CF1002DE9F04F8FB00D46DDE91941C6
:102FD0008346002957D12969039100211C60189B61
:102FE0001960002A00F02281814A824B11686A6AC6
:102FF0001B689A4257D10A2955D19BF80330069392
:103000000399042308467C4A0293A2FB000292081B
:10301000CB0002EB420204F10800A1EB4202013BAB
:10302000DFF8D091DFF800A2049000920593189B7E
:10303000039C1C60002C00F0CC800026049F00F054
:10304000A9FA00230793069BBBF1000F3AD0002D8D
:1030500034D053BB5B000693BBF1000F36D0002D7C
:1030600034D0E3B106A9284600F084FA002800F025
:103070007D81624B984212D0009000F08BFA00984C
:103080000FB0BDE8F08F4FF47F01D1F80C0C013088
:103090000CBF4FF40471D1F80C1C03919DE72B6A0F
:1030A00073B95648E8E75648E6E706A9284600F00F
:1030B00061FA68B1534B9842DED0069B082BC9D108
:1030C0005148D9E7082BFBD05B0006934F48D3E764
:1030D0002946069800F030FA0028EBD1069B082B11
:1030E00000F00E81042B00F03181A3F10203B3FA4A
:1030F00083F35B09019301231946454A136042F8A3
:10310000843C434B19606B6AC9F80030D9F8002041
:103110006B6A9A42F5D14FF000084FF0FF30CAF8C1
:103120000080FFF73BFC3B4A3B4B40461A60FFF7F1
:1031300043FC0A22019839492D4B08601A602A691C
:10314000A8F15538A8FB02126B6A120903EB43037E
:10315000DB0303FB02F3324A9B0913600123CAF825
:1031600000300699DBF800200B0243EA016322F0ED
:103170007F421343CBF8003007A800F0CDF90028B8
:1031800098D1284BA8FB04281A681433089253F8E6
:10319000102CB6EB980F099253F80C2C0A9253F8A6
:1031A000082C0B9253F8042C0C921B680D9301D140
:1031B000009B9BB93846182208A9FFF721FB183C51
:1031C00018370136002C7FF43AAF049B002B40F0F7
:1031D0009A800023189A1360069B6FE71A463846B8
:1031E00008A9E41AFFF70CFB009B1F44E9E700BFA6
:1031F0003811845030118450ABAAAAAA310CF100C6
:10320000300CF100020CF100320CF100350CF10031
:10321000C4118450FEFFFF0F001184500C11845024
:10322000D8118450141184502C118450BBF1000F1C
:103230003FF44CAF002D3FF449AF01230EA941F8F4
:10324000203DCBF80020284600F094F900287FF4B8
:1032500013AF2946069800F06FF900287FF40CAFF1
:10326000069F082F00F0EB80042F00F0EA80A7F102
:103270000207B7FA87F77F0901221646734B744994
:103280001A6018460A60943B06606A6A1A601968F8
:103290006A6A9142F8D14FF000086E4B4FF0FF3050
:1032A000C3F80080FFF77AFB6B4B6C4A40461A600C
:1032B000FFF782FB0A226A496A4B0F601A601A996B
:1032C0002B6901296A6A00F0B1806749A1FB0313E9
:1032D0001B09012102EB4202D20303FB02F3634A02
:1032E0009B0913605B4B19600699DBF800200B0209
:1032F00043EA016322F07F421343CBF800307FE6BC
:1033000003230193F7E6039BB3F5047F3FF661AF18
:10331000DDE9047C204623466E6904E00120013388
:103320006345144615D85A0957F8222003F01F01A7
:10333000CA401F2918BF02F00102002BEED0A242A2
:10334000ECD101308642EAD149480BE002230193D7
:10335000D1E64FF48063DDE90310AA69FFF7F4FDBD
:1033600000285DD00023189A1360A3E6294606982A
:1033700000F0E2F800287FF47CAE069C082C51D0C7
:10338000042C51D0A4F10204B4FA84F4640901239A
:103390001E4619462D4A136042F8843C2B4B196097
:1033A0006B6AC9F80030D9F800206B6A9A42F5D1EF
:1033B00000274FF0FF30CAF80070FFF7EFFA264BF6
:1033C000264A38461A60FFF7F7FA0A222449254BA5
:1033D0000C601A602A6924496B6AA1FB021203EB94
:1033E00043031209DB0303FB02F3204A9B0913602A
:1033F000CAF80060069BDBF800101A0242EA036379
:1034000021F07F421A43130A03F47F03134323F08E
:103410007F43CBF80030029B013B02937FF407AE61
:10342000002029E60324B2E70224B0E74FF47F032B
:10343000D3F80C1C013106D0D3F80C3C45E7032728
:103440001AE7022718E7162343E700BFC411845088
:10345000401184502C11845000118450FEFFFF0F46
:103460000C11845038118450ABAAAAAAD8118450E8
:10347000360CF1002DE9F0431B4C85B00746DDE921
:103480000D56884620684FF0FF319146FFF71EFA2F
:1034900028BB0020FFF74AFAE8B90023CDE900561F
:1034A00002934A46414638460C9BFFF78BFD054682
:1034B0000120FFF73BFA50B92068FFF70FFA10B16F
:1034C0000A48FFF78DFB284605B0BDE8F0830848A1
:1034D000FFF786FBF0E70748FFF782FBDDE70648CA
:1034E000FFF77EFBD5E700BF2414002060460000F4
:1034F00098460000784600004846000010B50124B8
:1035000086B005ABCDE901240093002204ABFFF7A0
:1035100059FD06B010BD00BF08B501464FF48060EC
:10352000FFF750FA00230249024A0B60136008BDFE
:10353000C81184502C1184500138072815D8DFE8B1
:1035400000F0100C140814141404CB6800204B6213
:1035500070478B6800204B6270474B6800204B62BD
:1035600070470B6800204B6270470148704700BFEE
:10357000310CF1000B6802E0082B0B6006D8026AE0
:1035800013424FEA4303F7D00020704700487047CA
:10359000310CF10000230449044A0B604FF48060B1
:1035A0001360FFF7FBB900BF2C118450C411845085
:1035B00008B5FDF7D1FABDE80840FDF761BA40E86B
:1035C00000F313F4803FD8B208BF6FF015007047C6
:1035D000FF232DE9F74F4568002229464FF00C0ADA
:1035E0004FF0200B0789046805FB07FCC372837A40
:1035F00064440193019B934208DC002319468F42E7
:1036000005EB030C21DC03B0BDE8F08FBCFBF1F34C
:10361000202B84BF1F3393FBFBF30AFB02FED0F881
:103620000C804FEA910108EB0E0606F10409C6E989
:10363000019921F0030194BFC27248F80E4002F1D3
:10364000010288BF04EB8304D4E7C268066802F174
:10365000040EF41846F803E0936801316360936840
:103660001C6094606346CAE7044608B508461146E4
:103670001A46A047FEF73CFFFDF732FF00207047D7
:1036800070B50D4604464520A04729465220A04764
:1036900029462346BDE87040522018472DE9F04FD7
:1036A0004FF0000806460F461C464FF0FF3AC14651
:1036B0008BB002F1FF3B002505E05DB9252800F045
:1036C00056813946B0471BF8010F0028F5D10BB0E1
:1036D000BDE8F08F64286DD01AD839280AD831286F
:1036E0005FD22D2800F0498130284BD0252807D102
:1036F00039460BE0582800F0BC80632800F0318187
:1037000039462520B04739469BF80000B047D2E73C
:10371000702800F0A48011D869284BD06C2805D1FE
:10372000B8F16C0F29D14FF04C08CCE76828E7D1ED
:10373000B8F1680F21D14FF04808C4E7752870D060
:1037400017D87328DCD12568231D02932B461C460D
:1037500014F8010B002840F0FB80B9F1030F40F092
:1037600012815C1BAAEB0404002C00F3F580029C80
:10377000A1E778287DD07A28C2D1B8F1000FBFD157
:103780008046A0E7BAF1000F0EDAB9F1000F00F0A1
:10379000F780A0F1300AB9F1000F08BF4FF002091D
:1037A00091E7BAF1000FF4DB0A2303FB0A0AAAF13E
:1037B000300AF0E7B8F17A0F02D1256804341FE02F
:1037C000B8F16C0FF9D0B8F14C0FF6D1073424F0F2
:1037D000070303F10804D3E9002312F10040CDE907
:1037E000022343F1000100234FF0FF328B4208BF58
:1037F000824204D239463046FFF742FF5BE7029D22
:10380000002D05DA39462D20B0476D420AF1FF3A06
:103810004B462A46CDF800A039463046FCF76EFFED
:1038200049E7B8F17A0F02D12268043413E0B8F105
:103830006C0FF9D0B8F14C0FF6D100214FF0FF30EA
:10384000073424F0070303F10804D3E90023994265
:1038500008BF9042CED3CDF800A04B46DCE73946F6
:103860003020B04739467820B0474FF0080A4FF073
:1038700001099BF80030702B05D1236804340693AE
:10388000002302930EE0B8F16C0FF6D0B8F14C0FA4
:10389000F3D1073424F007031A6803F108045B68C6
:1038A0000692029300231022059307934023043BC2
:1038B00002990698C3F1200CA3F1200ED84001FA1A
:1038C0000CFC40EA0C0021FA0EFE40EA0E0010F05B
:1038D0000F0007D1079901B92BBB4FF0300C07E05F
:1038E0000795E4E709288CBF4FF0570C4FF0300CD8
:1038F00039466044CDE90732B047059B0133059353
:10390000DDE90732002BEBD1B9F1030F7FF4D3AE21
:10391000059BC3EB4A05002D7FF7CDAE394620202D
:10392000B047013DF7E7511E9245089107DBB9F119
:10393000010F06D1394630200993B047099B089AF8
:10394000B5E7B9F1020FFAD1099339462020F4E71F
:103950003946B0472346FAE639462020B047013CB5
:1039600002E72068251D3946B0472C46A3E6A84645
:10397000A9464FF0FF3A0125A5E64FF00309A2E65C
:103980004FF001099FE6029C05469CE60FB407B57F
:1039900004A951F8040B0191FCF702FF03B05DF894
:1039A00004EB04B070477047FEF76EB883685A7A2C
:1039B00032B993F908000028CCBF002001207047DD
:1039C00002207047026870B5956884684FF0200344
:1039D000EFF3118683F31188BFF36F8F237A013BD6
:1039E0005BB2002B237218D1C4E900336B6883B932
:1039F0000122EB7A03F150231A6000222B8903F194
:103A000050231A600020607286F31188BFF36F8F15
:103A100070BD98470028EBD1F4E74FF00000BCBF21
:103A200020726FF04400EFE7F8B5036806461446CD
:103A30009F6885684FF02003EFF3118283F31188AC
:103A4000BFF36F8F2B7A01335BB22B7282F3118835
:103A5000BFF36F8F6A7A32B10CB90020F8BDD4E998
:103A600001319847F9E7012B06D13B6833B90122B0
:103A7000BB7A03F150231A604CB9EEE7984700284F
:103A8000F5D1002CE9D0D4E90131304698472B68B4
:103A90009C420DD013B11B68002BF9D1002020608F
:103AA0006B6813B9C5E90044D7E71C606C60D5E7C3
:103AB0006FF04400D2E70022FFF7B6BF8368002012
:103AC000C3E90000704710B500220446012105201B
:103AD000FDF730FB0520FDF71DFB4FF050230222C0
:103AE000C3F8182503220020C3F80423A368C3E900
:103AF000000010BD38B58468054623682BB16168A5
:103B00001A688B42226008BF62600122627203B9A8
:103B100038BDD3E90121284690472368002BF7D010
:103B200061681A688B42226008BF6260EFE77047E5
:103B30007047002307B502A800F8043DFEF760FFB8
:103B400003B05DF804FB902908B5134639D10A4645
:103B500001460020FEF760FFBDE80840714672464E
:103B60007346B7EE000AF7EE000AB7EE001AF7EE5A
:103B7000001AB7EE002AF7EE002AB7EE003AF7EE89
:103B8000003AB7EE004AF7EE004AB7EE005AF7EEF9
:103B9000005AB7EE006AF7EE006AB7EE007AF7EE69
:103BA000007A8EF3008C10B4F1EE10CA4FF66074F8
:103BB000C0F6FF740CEA040CE1EE10CA10BCF44627
:103BC00074476FF01500C7E7FEE7FDF725BB43B26A
:103BD000A9B1002B12DB01215B099B0003F16043BB
:103BE00003F56143D3F8802200F01F0001FA00F0D2
:103BF00022EA0000C3F88002D3F880327047002B1D
:103C0000FCDB01225B099B0003F1604303F5614388
:103C1000D3F8801200F01F0002FA00F00843E9E731
:103C200000F0FBB80146006800F0F7B808B5FDF7F2
:103C300005FBBDE80840FDF70BBA07B5002101A858
:103C4000FDF7E4FD03B05DF804FB30B585B09DF8E9
:103C500008200D890B684C68498965F3040261F3FB
:103C6000471200938DF8082023F01F03621E1344AF
:103C700023F01F030F280393044605D86946FDF778
:103C80007FFC204605B030BD6FF01504F9E7013820
:103C9000013910F8013F11F8012F934202D1002B96
:103CA000F7D11A46981A7047431A934210B500EBA1
:103CB000020308D3024601399A420BD011F8014F92
:103CC00002F8014BF8E70A4412F8014D8A4203F862
:103CD000014DF9D110BDF0B581EA0004A5070346F6
:103CE0000BD0013B0A4491421DD1F0BD002AFCD00B
:103CF00011F8014B013A03F8014B9C07F6D10C4631
:103D00001D1F8F183E1B032E08D86FF00305940863
:103D100005FB0422A40023442144E2E754F8046B89
:103D200045F8046FEEE711F8014B03F8014FDAE7AD
:103D30000346F0B5C9B29C070FD11D4641EA0124E4
:103D400044EA04449F187E1B032E0CD8940803EB0E
:103D5000840413449C4209D1F0BD002AFCD003F82E
:103D6000011B013AE7E745F8044BECE704F8011BB7
:103D7000F0E74FF0FF3070470B46826892E803008F
:103D800083E803000020704703689B681B68D3F832
:103D9000240118B1D3F88004C3F880047047036885
:103DA00082689B681B68D3F8100138B1127A002032
:103DB0000A700122C3F810011A6070474FF0FF30FB
:103DC000704782B002AA02F8011D002103689B68B7
:103DD0001B68C3F82011C3F844250122C3F8482505
:103DE0009A60D3F820110029FBD0DA6002B0704746
:103DF00008B5FDF797F8FDF715F9BDE80840FEF79F
:103E0000C3BE4FF02002EFF3118382F31188BFF39A
:103E10006F8FFEE708B5FFF7F4FF70B505460E4655
:103E2000FEF766FB314604462846FFF7F3FF2046BF
:103E3000BDE87040FDF754BBFFF77ABE30B50024F3
:103E4000C0E90232C0E905440161A34202D1C0E9E0
:103E5000000030BD456901340D6041611144F4E753
:103E60000023C0E90000C0E902337047437BDB0652
:103E700003BF8069B0FA80F040090020704738B570
:103E800004464FF02003EFF3118583F31188BFF34D
:103E90006F8F01468068FEF75FF9637B23F00203B2
:103EA000637385F31188BFF36F8F0023A36038BD60
:103EB00008B539B9FEF7E8F820B1BDE80840084672
:103EC000FDF7D4B881F31188BFF36F8F08BD08B533
:103ED000024638B9FEF7D8F820B1BDE808401046D0
:103EE000FDF7C4B882F31188BFF36F8F08BD4FF0A0
:103EF0002003EFF3118083F31188BFF36F8FFFF777
:103F0000E6BF0368984214BF18460020704750F877
:103F1000103C70B50446A0F11805CBB14FF020035A
:103F2000EFF3118683F31188BFF36F8F294650F8A2
:103F3000100CFEF711F914F80B3C23F0020304F8FF
:103F40000B3C86F31188BFF36F8F002344F8103CBD
:103F500014F80B3C284623F0140304F80B3CFFF73D
:103F600085FF20B12846BDE87040FEF745B970BD19
:103F700038B54FF02003EFF3118283F31188BFF3BC
:103F80006F8FFFF7BEFF044682F31188BFF36F8F78
:103F9000C8B14FF02003EFF3118583F31188BFF30D
:103FA0006F8F01468068FEF7D7F8637B23F002032A
:103FB000637385F31188BFF36F8F002304F118003A
:103FC000A36000F032F8204638BD437BDB0603BF18
:103FD0008069B0FA80F0400900207047036D10B589
:103FE000044603B198472046FFF7EFFF38B120465B
:103FF000FEF7B4F9637B43F00803637310BD637B82
:104000009B0702D52046FFF73AFFA369002BF1D0AA
:1040100004F1180000F009F8ECE703730023427381
:104020008173C373C0E90633704710B54FF02002A7
:10403000EFF3118482F31188BFF36F8F03683BB1F4
:10404000FEF7FEFA002084F31188BFF36F8F10BDD6
:104050006FF01500F7E710B54FF02003EFF3118470
:1040600083F31188BFF36F8FFEF700FB84F3118891
:10407000BFF36F8F10BD70B504460E464FF020039E
:10408000EFF3118583F31188BFF36F8FFEF7EEFA1C
:10409000012805DDA04203DD31462046FCF75AFC2D
:1040A00085F31188BFF36F8F70BD704714C2FF7F17
:1040B0000100000000000000CB3B000000000000F9
:1040C000CB3B000000000000CB3B000000000000E4
:1040D000CB3B000000000000CB3B000000000000D4
:1040E0004508000000000000CB3B0000000000007D
:1040F000CB3B000000000000CB3B000000000000B4
:10410000CB3B000000000000CB3B000000000000A3
:10411000CB3B000000000000CB3B00000000000093
:10412000CB3B000000000000CB3B00000000000083
:10413000CB3B000000000000CB3B00000000000073
:10414000CB3B000000000000CB3B00000000000063
:10415000CB3B000000000000CB3B00000000000053
:104160009D08000000000000CB3B000000000000A4
:10417000CB3B000000000000CB3B00000000000033
:10418000CB3B000000000000CB3B00000000000023
:10419000CB3B000000000000CB3B00000000000013
:1041A000CB3B000000000000CB3B00000000000003
:1041B000CB3B000000000000CB3B000000000000F3
:1041C000CB3B000000000000CB3B000000000000E3
:1041D000CB3B000000000000CB3B000000000000D3
:1041E000CB3B000000000000CB3B000000000000C3
:1041F000CB3B000000000000CB3B000000000000B3
:10420000CB3B000000000000CB3B000000000000A2
:10421000CB3B000000000000CB3B00000000000092
:10422000CB3B000000000000CB3B00000000000082
:10423000CB3B000000000000CB3B00000000000072
:10424000CB3B000000000000CB3B00000000000062
:10425000CB3B000000000000CB3B00000000000052
:10426000CB3B000000000000CB3B00000000000042
:10427000CB3B000000000000CB3B00000000000032
:10428000CB3B000000000000CB3B00000000000022
:10429000CB3B000000000000CB3B00000000000012
:1042A000CB3B000000000000CB3B00000000000002
:1042B000CB3B000000000000CB3B0000F4460000B8
:1042C000C107000000000000F446000029080000BB
:1042D00000000000CE460000BD3A00008843000008
:1042E000D8460000C73A00007C430000E2460000C8
:1042F000DD08000000000000F4460000091700007F
:1043000000000000C7460000D1190000A8450000C9
:10431000EB490000F13D000000000000F446000001
:10432000351E000000000000F4460000D927000000
:1043300000000000DEE61E284CBBCE8F015B0000B3
:10434000020000004843000000000000B8460000E2
:1043500006000000E0FF0F0000000020C046000043
:1043600021000000E0FF0020B73A0000C53900003E
:10437000293A000000000000AD39000000000000F4
:104380000000000000010004000000000000000028
:104390000401080C170100000701000007010000DC
:1043A00007010000070100000701000007010000ED
:1043B00007010000070100000701000007010000DD
:1043C00007010000070100000701000007010000CD
:1043D00007010000070100000701000007010000BD
:1043E00007010000070100000701000007010000AD
:1043F000070100000701000007010000070100009D
:10440000070100000701000007010000070100008C
:1044100007010000A548000042010000AC48000070
:1044200005010000B648000015010000BF4800006B
:1044300039010000C848000009010000D34800000D
:104440000A000000DE4800000A010000E848000001
:104450000B010000F24800000F010000FD480000C1
:10446000100100000849000011010000134900007C
:104470000E0100001D490000210100002649000036
:10448000220100002F4900002301000038490000EC
:1044900024010000414900001800000049490000C3
:1044A0002A010000514900003A010000594900006A
:1044B0002C010000614900001C0100006A49000055
:1044C0001D01000073490000170100007D49000034
:1044D00031010000894900000400000017010000BC
:1044E000170100001701000017010000170100006C
:1044F000170100001701000017010000070100006C
:10450000070100000701000007010000070100008B
:10451000070100000701000007010000070100007B
:10452000070100000701000007010000070100006B
:10453000070100000701000007010000070100005B
:10454000070100000701000007010000070100004B
:104550000701000007010000070100000002000041
:10456000000400000008000000000000C93B00003B
:10457000C10F0000810F0000510F0000310F00003B
:10458000F0130020D8130020E813002000000000E2
:10459000E01300209F3D0000C33D0000893D000066
:1045A00059180000793D0000008000500100000013
:1045B00054140020B4140020C0140020CC14002097
:1045C000CC140020F5FFFFFF436F756C64206E6F05
:1045D00074206C6F636B20706F77657220736176E7
:1045E00065206D7574657800FF8FFFFFFF8FFFFFFB
:1045F000FE8FFFFFFE8FFFFFFD8FFFFFFC8FFFFF92
:10460000FC8FFFFF43616E277420696E69746961D6
:104610006C697A65206D757465782C2077617320DC
:104620004E554C4C0D0A000043616E277420756E88
:104630006C6F636B206D757465782C2077617320C7
:104640004E554C4C0D0A00004661696C20746F2079
:1046500061637175697265206D757465780A000013
:104660004661696C20746F2072656C6561736520AA
:104670006D757465780A00004661696C20746F205E
:10468000696E63726561736520504D20636F756E4E
:104690007465720A000000004661696C20746F2026
:1046A000646563726561736520504D20636F756E3C
:1046B0007465720A00000000464C4153485F3000A8
:1046C0005352414D5F3000554152545F3000434CCE
:1046D0004F434B5F33324B00434C4F434B5F3136BC
:1046E0004D007379735F636C6F636B005365637523
:1046F00072650909004E6F6E2D5365637572650909
:10470000004E6F6E2D53656375726500466C617364
:104710006820726567696F6E0909446F6D61696E23
:1047200009095065726D697373696F6E730A0025AC
:104730003032752030782530357820307825303586
:10474000782009002563004E6F6E2D7365637572C6
:10475000652063616C6C61626C6520726567696F6E
:104760006E203020706C6163656420696E20666C19
:1047700061736820726567696F6E202564207769B0
:1047800074682073697A652025642E0A00436F756A
:104790006C64206E6F7420696E697469616C697AEB
:1047A00065207365637572652073657276696365EC
:1047B000732028657272202564292E0A0053524105
:1047C0004D20726567696F6E0909446F6D61696E8E
:1047D00009095065726D697373696F6E730A0025FC
:1047E00030327520307825303578203078253035D6
:1047F0007809005065726970686572616C090944D6
:104800006F6D61696E09095374617475730A0025CF
:1048100030327520252D32317325730009534B49F1
:10482000500A00094552524F520A00094F4B0A00E4
:1048300053504D3A204E5320696D61676520617475
:1048400020307825780A0053504D3A204E53204DA1
:10485000535020617420307825780A0053504D3A27
:10486000204E5320726573657420766563746F7291
:1048700020617420307825780A0053504D3A20701A
:1048800072657061726520746F206A756D70207436
:104890006F204E6F6E2D53656375726520696D6173
:1048A00067652E0A004E52465F5030004E52465FFA
:1048B000434C4F434B004E52465F52544331004EDF
:1048C00052465F4E564D43004E52465F554152543C
:1048D0004531004E52465F554152544532004E52CA
:1048E000465F5457494D32004E52465F5350494D32
:1048F00033004E52465F54494D455230004E5246A9
:104900005F54494D455231004E52465F54494D4522
:104910005232004E52465F5341414443004E52468C
:104920005F50574D30004E52465F50574D31004E4C
:1049300052465F50574D32004E52465F50574D33EE
:10494000004E52465F574454004E52465F49504312
:10495000004E52465F564D43004E52465F465055FC
:10496000004E52465F45475531004E52465F45471F
:104970005532004E52465F4450504943004E524615
:104980005F4750494F544531004E52465F524547AC
:10499000554C41544F5253006D757465785F696E84
:1049A00069742063616C6C65642077697468204E5B
:1049B000554C4C20706172616D6574657200436F77
:1049C000756C64206E6F7420616C6C6F63617465CC
:1049D000206D75746578206265666F726520696EFA
:1049E000697469616C697A696E670048575F43430F
:1049F0003331305F30002A2A2A2A2A20426F6F740E
:104A0000696E67205A6570687972204F532062750D
:104A1000696C642076322E302E39392D6E637331F5
:104A2000202A2A2A2A2A0A006D61696E0069646CAC
:104A3000650000007D360000E01400200100000049
:104A4000F4140020010000000815002001000000FF
:104A50001C15002001000000733D000000C2010091
:104A600000010300000000000090D0030C1400209F
:104A70000C1400204414002050140020481400207E
:104A8000401400201C14002000000000BD2B00007A
:104A9000252C0000FD2B0000412C0000012C000003
:104AA000880600207C06002084060020000000000C
:104AB00080060020BC420000000000000000000052
:104AC0001C4300000000000000000000284300001C
:104AD0000000000000000000F8420000000000009C
:104AE00000000000E0420000684300000C000020CD
:104AF000D442000068430000180000200443000076
:104B000094450000FC130020C84200000000000093
:104B100000000000EC420000000000000000000067
:104B2000104300000000000000000000CC14002032
:104B3000CC14002000000000000000000F00000066
:104B4000E0140020E014002000000000000000003D
:104B50000F000000F4140020F414002000000000F6
:104B6000000000000F0000000815002008150020BC
:104B700000000000000000000F0000001C150020D5
:104B80001C15002000000000000000000F000000C5
:104B9000FFFFFFFFFFFFFFFFFFFFFFFFFFFFFFFF25
:104BA0000000000000000000000000000000000005
:104BB00000000000000000000000000000000000F5
:104BC00000000000000000000000000000000000E5
:107FE0007FE97FE9F8F7C8BE7FE97FE9F8F71CBFB2
:107FF0007FE97FE9FBF7A7BD00000000000000005B
:10C00000487F0220E5E40000D365020029E4000037
:10C0100029E4000029E4000029E4000029E40000EC
:10C0200029E4000029E4000029E4000045E20000C2
:10C0300029E4000029E4000095E1000015DE00007D
:10C04000A5E40000A5E40000A5E40000A5E40000CC
:10C05000A5E40000A5E40000A5E40000A5E40000BC
:10C06000A5E40000A5E40000A5E40000A5E40000AC
:10C07000A5E40000A5E40000A5E40000A5E400009C
:10C08000A5E40000A5E40000A5E40000A5E400008C
:10C09000A5E40000A5E40000A5E40000A5E400007C
:10C0A000A5E40000A5E40000A5E40000A5E400006C
:10C0B000C9050100D56E0200A5E40000A5E400005A
:10C0C000A5E40000A5E40000A5E40000A5E400004C
:10C0D000A5E40000A5E40000A5E40000A5E400003C
:10C0E000A5E40000A5E40000816F0200A5E40000C3
:10C0F000A5E40000A5E40000A5E40000A5E400001C
:10C10000A5E40000A5E40000A5E40000A5E400000B
:10C11000A5E40000A5E40000A5E40000A5E40000FB
:10C12000A5E40000A5E40000A5E40000A5E40000EB
:10C13000A5E40000A5E40000A5E40000A5E40000DB
:10C14000A5E4000000000000000000000000000066
:10C1500000000000000000000000000000000000DF
:10C1600000000000000000000000000000000000CF
:10C1700000000000000000000000000000000000BF
:10C1800000000000000000000000000000000000AF
:10C19000000000000000000000000000000000009F
:10C1A000000000000000000000000000000000008F
:10C1B000000000000000000000000000000000007F
:10C1C000000000000000000000000000000000006F
:10C1D000000000000000000000000000000000005F
:10C1E000000000000000000000000000000000004F
:10C1F000000000000000000000000000000000003F
:10C20000DEE61E284CBBCE8F015B000030ED010046
:10C210000100000000C00000888C0220DD0D01003C
:10C220007BB972B90029BEBF00204FF0004106E083
:10C2300008BF00281CBF6FF000414FF0FF3000F036
:10C24000C7B9ADF1080C6DE904CE002909DB002B5C
:10C250001ADB00F04DF8DDF804E0DDE9022304B05C
:10C260007047404261EB4101002B1BDB00F040F8BE
:10C27000DDF804E0DDE9022304B0404261EB410156
:10C28000524263EB43037047524263EB430300F0B7
:10C290002FF8DDF804E0DDE9022304B0404261EB51
:10C2A00041017047524263EB430300F021F8DDF88F
:10C2B00004E0DDE9022304B0524263EB430370471C
:10C2C00053B94AB9002908BF00281CBF4FF0FF31FD
:10C2D0004FF0FF3000F07CB9ADF1080C6DE904CEF1
:10C2E00000F006F8DDF804E0DDE9022304B0704751
:10C2F0002DE9F0478C46089D04468A46002B4AD11A
:10C300008A42174662D9B2FA82F64EB1C6F1200EC1
:10C3100001FA06F3B740B44020FA0EFE4EEA030AD3
:10C320004FEA1748230C1FFA87F9BAFBF8FE08FBFF
:10C330001EAA0EFB09F243EA0A439A420BD9FB18E4
:10C340000EF1FF312CBF012000209A4202D90028B3
:10C3500000F02A818E469A1AA3B2B2FBF8F008FBCD
:10C36000102200FB09F943EA0244A14507D93C1910
:10C3700000F1FF3302D2A14500F210811846A4EB70
:10C38000090440EA0E4000211DB1F4400023C5E934
:10C390000043BDE8F0878B4208D9002D00F0F28001
:10C3A0000021C5E9000C0846BDE8F087B3FA83F127
:10C3B00000294ED16345C0F0E880824240F2E5801A
:10C3C0000846002DE5D0C5E9004AE2E702B9FFDEE4
:10C3D000B2FA82F6002E40F099808B1A4FEA124E84
:10C3E0001FFA82F801214FEA144CB3FBFEF20EFB58
:10C3F000123008FB02F94CEA004CE14508D917EB72
:10C400000C0C02F1FF3302D2E14500F2CA801A4659
:10C41000ACEB090CA3B2BCFBFEF00EFB10CC08FB8E
:10C4200000F843EA0C44A0450ED93C1900F1FF3353
:10C430002CBF4FF0010C4FF0000CA04503D9BCF10C
:10C44000000F00F0A8801846A4EB080440EA024060
:10C450009AE7C1F120048B4002FA01FE0CFA01F6C2
:10C46000E24020FA04F72CFA04FC00FA01F8134326
:10C470003E431F0C320C1FFA83F9BCFBF7F007FB9D
:10C4800010CC00FB09FA42EA0C4CE24508D913EB48
:10C490000C0C00F1FF3202D2E24500F28980104616
:10C4A000ACEB0A0CB6B2BCFBF7FA07FB1ACC0AFBE2
:10C4B00009F946EA0C42914506D99A180AF1FF3665
:10C4C00001D291457AD8B2464AEA0040A2EB09026D
:10C4D000A0FB0E67BA42B446B94602D307D1B045B5
:10C4E00005D2B6EB0E0C67EB030301389946002D1D
:10C4F0006BD0B8EB0C0362EB090202FA04F4CB40F8
:10C50000CA4000211C43C5E9004242E7B740C6F1DA
:10C51000200201FA06F3B44021FA02FC4FEA174E5A
:10C5200020FA02F21FFA87F8BCFBFEF11A430EFB59
:10C5300011CC01FB08F0130C43EA0C4C604507D901
:10C5400017EB0C0C01F1FF3301D2604533D81946CB
:10C55000ACEB000C92B2BCFBFEF00EFB10CC00FB6F
:10C5600008F342EA0C4C634507D917EB0C0C00F1B9
:10C57000FF3201D2634525D81046ACEB030340EAF5
:10C58000014130E72946284603E7841A6CEB030390
:10C5900001209A4615E702383C4455E702383C44EE
:10C5A000EDE6023ABC4433E7AEF1020E3B44D2E67C
:10C5B00002389C4474E70239BC44C9E7AAF1020A74
:10C5C0001A4481E70238BC44D7E72946E1E600BFB8
:10C5D000704700BF2DE9F04F92E8F00F4FF0020EC8
:10C5E0004FEAB81C8CEAF82C8CEA786CDC448AEAB6
:10C5F000090303EA080383EA0A039C4450F8043B56
:10C600009C4451F8043B9C44674444EA050B0BEA04
:10C61000060B04EA05034BEA030BE3444FEAB403B9
:10C6200083EA743383EAB4539B444FEAB71C8CEA21
:10C63000F72C8CEA776CD44489EA080303EA0703F1
:10C6400083EA09039C4450F8043B9C4451F8043BA2
:10C650009C4466444BEA040A0AEA050A0BEA04030E
:10C660004AEA030AE2444FEABB0383EA7B3383EAE4
:10C67000BB539A444FEAB61C8CEAF62C8CEA766CD3
:10C68000CC4488EA070303EA060383EA08039C44D0
:10C6900050F8043B9C4451F8043B9C4465444AEAEE
:10C6A0000B0909EA04090AEA0B0349EA0309E14410
:10C6B0004FEABA0383EA7A3383EABA5399444FEADA
:10C6C000B51C8CEAF52C8CEA756CC44487EA060329
:10C6D00003EA050383EA07039C4450F8043B9C44A7
:10C6E00051F8043B9C44644449EA0A0808EA0B08F0
:10C6F00009EA0A0348EA0308E0444FEAB90383EA77
:10C70000793383EAB95398444FEAB41C8CEAF42C89
:10C710008CEA746CBC4486EA050303EA040383EAEA
:10C7200006039C4450F8043B9C4451F8043B9C4451
:10C73000E34448EA090707EA0A0708EA090347EA5F
:10C74000030767444FEAB80383EA783383EAB853B0
:10C750001F444FEABB1C8CEAFB2C8CEA7B6CB44474
:10C7600085EA040303EA0B0383EA05039C4450F8BB
:10C77000043B9C4451F8043B9C44E24447EA0806CD
:10C7800006EA090607EA080346EA030666444FEA92
:10C79000B70383EA773383EAB7531E444FEABA1CE0
:10C7A0008CEAFA2C8CEA7A6CAC4484EA0B0303EA38
:10C7B0000A0383EA04039C4450F8043B9C4451F868
:10C7C000043B9C44E14446EA070505EA080506EAFD
:10C7D000070345EA030565444FEAB60383EA763367
:10C7E00083EAB6531D444FEAB91C8CEAF92C8CEA53
:10C7F000796CA4448BEA0A0303EA090383EA0B0376
:10C800009C4450F8043B9C4451F8043B9C44E04455
:10C8100045EA060404EA070405EA060344EA0304B9
:10C8200064444FEAB50383EA753383EAB5531C4485
:10C83000BEF1010E7FF4D4AE82E8F00FBDE8F08FB8
:10C840002DE9F04F90E8FC03D0E9091CD0E90EABCC
:10C850000A444FEA7A4E8EEAFA4E8EEA9A2E7244D3
:10C860004FEAF31E8EEAB34E8EEAD30E724463444F
:10C870004FEA7B4E8EEAFB4E8EEA9B2E73444FEAC4
:10C88000F41E8EEAB44E8EEAD40E7344D0E90B1A2D
:10C890000C444FEA724E8EEAF24E8EEA922E7444A7
:10C8A0004FEAF51E8EEAB54E8EEAD50E7444554415
:10C8B0004FEA734E8EEAF34E8EEA932E75444FEA9A
:10C8C000F61E8EEAB64E8EEAD60E7544D0E90DEA13
:10C8D00076444FEA744E8EEAF44E8EEA942E7644F5
:10C8E0004FEAF71E8EEAB74E8EEAD70E76445744CB
:10C8F0004FEA754E8EEAF54E8EEA952E77444FEA52
:10C90000F81E8EEAB84E8EEAD80E7744D8444FEA25
:10C91000764E8EEAF64E8EEA962EF0444FEAF91ED7
:10C920008EEAB94E8EEAD90EF044D0E908AB9144B4
:10C930004FEA774E8EEAF74E8EEA972EF1444FEA91
:10C94000FA1E8EEABA4E8EEADA0EF1449A444FEAA3
:10C95000784E8EEAF84E8EEA982EF2444FEAFB1E8D
:10C960008EEABB4E8EEADB0EF244A3444FEA794EC8
:10C970008EEAF94E8EEA992EF3444FEAFC1E8EEAB7
:10C98000BC4E8EEADC0EF344AC444FEA7A4E8EEA9B
:10C99000FA4E8EEA9A2EF4444FEAF11E8EEAB14E18
:10C9A0008EEAD10EF444A0E8FC1FD0E901453144E1
:10C9B0004FEA7B4E8EEAFB4E8EEA9B2E71444FEA85
:10C9C000F41E8EEAB44E8EEAD40E71443C444FEA13
:10C9D0007C4E8EEAFC4E8EEA9C2E74444FEAF51E85
:10C9E0008EEAB54E8EEAD50E7444D0E9036745440D
:10C9F0004FEA714E8EEAF14E8EEA912E75444FEA5F
:10CA0000F61E8EEAB64E8EEAD60E75444E444FEAB6
:10CA1000744E8EEAF44E8EEA942E76444FEAF71E58
:10CA20008EEAB74E8EEAD70E764457444FEA754EDB
:10CA30008EEAF54E8EEA952E77444FEAF21E8EEA84
:10CA4000B24E8EEAD20E7744F2C0BDE8F08F00BF3E
:10CA500070B491E87800B2E802105B1854EB0C0453
:10CA6000B2E802104D4156EB0C0680E87800804198
:10CA7000013070BC704770B491E87800B2E80210E1
:10CA80005B1A74EB0C04B2E802108D4176EB0C06D5
:10CA900080E878008041404270BC70472DE9F00783
:10CAA00091E8F807B2E802105B1854EB0C04B2E806
:10CAB00002104D4156EB0C06B2E802104F4158EB04
:10CAC0000C08B2E8021059EB01095AEB0C0A80E895
:10CAD000F80780410130BDE8F00770472DE9F00705
:10CAE00091E8F807B2E802105B1A74EB0C04B2E8A4
:10CAF00002108D4176EB0C06B2E802108F4178EB04
:10CB00000C08B2E8021079EB01097AEB0C0A80E814
:10CB1000F80780414042BDE8F00770472DE9F00773
:10CB2000524290E87800B1E880071740DB1918EA14
:10CB3000020854EB080419EA020955EB09051AEA40
:10CB4000020A56EB0A0678C090E87800B1E8800740
:10CB500017407B4118EA020854EB080419EA02095D
:10CB600055EB09051AEA020A56EB0A0678C080411D
:10CB70000130BDE8F00770472DE9F007524290E818
:10CB80007800B1E880071740DB1B18EA020874EB55
:10CB9000080419EA020975EB09051AEA020A76EB9C
:10CBA0000A0678C090E87800B1E880071740BB41DA
:10CBB00018EA020874EB080419EA020975EB090582
:10CBC0001AEA020A76EB0A0678C080414042BDE8C4
:10CBD000F007704790E8300091E8C000A31B1340B5
:10CBE000E41AF618EB1B1340ED1AFF1830C0C0C151
:10CBF0007047F0B55242FFF7EDFFFFF7EBFFFFF78D
:10CC0000E9FFFFF7E7FFF0BD2DE9F0073AC9166825
:10CC1000A1FB069A4FF0000CE3FB06AC4FF00007B7
:10CC2000E4FB06C74FF00008E5FB067840F8049BDC
:10CC300056684FF00009E1FB06A91CEB090C4FF008
:10CC4000000949EB0909E3FB06C917EB09074FF097
:10CC5000000949EB0909E4FB067918EB09084FF0D4
:10CC6000000949EB0909E5FB068940F804AB966821
:10CC70004FF0000AE1FB06CA17EB0A074FF0000A63
:10CC80004AEB0A0AE3FB067A18EB0A084FF0000A9F
:10CC90004AEB0A0AE4FB068A19EB0A094FF0000A7C
:10CCA0004AEB0A0AE5FB069A40F804CBD6684FF037
:10CCB000000CE1FB067C18EB0C084FF0000C4CEB71
:10CCC0000C0CE3FB068C19EB0C094FF0000C4CEB41
:10CCD0000C0CE4FB069C1AEB0C0A4FF0000C4CEB1E
:10CCE0000C0CE5FB06AC80E88017BDE8F007704748
:10CCF0000A462DE9F04F41EC140A92EC080A1EC9CD
:10CD000010EE100AA1FB00784FF00009E2FB008949
:10CD10004FF0000AE3FB009A4FF0000BE4FB00AB7E
:10CD200012EE100A4FF0000CE1FB00BC4FF0000EB9
:10CD3000E2FB00CE4FF00005E3FB00E54FF00006FC
:10CD4000E4FB005605EE107A10EE900A4FF0000753
:10CD5000E1FB008719EB07094FF0000747EB0707D6
:10CD6000E2FB00971AEB070A4FF0000747EB0707B3
:10CD7000E3FB00A71BEB070B4FF0000747EB070790
:10CD8000E4FB00B712EE900A1CEB070C4FF0000713
:10CD900047EB0707E1FB00C71EEB070E4FF000074C
:10CDA00047EB0707E2FB00E7ED194FF0000747EB01
:10CDB0000707E3FB0057F6194FF0000747EB07079B
:10CDC000E4FB006705EE908A11EE100A4FF00008B0
:10CDD000E1FB00981AEB080A4FF0000848EB08083E
:10CDE000E2FB00A81BEB080B4FF0000848EB08081B
:10CDF000E3FB00B81CEB080C4FF0000848EB0808F8
:10CE0000E4FB00C813EE100A1EEB080E4FF00008FA
:10CE100048EB0808E1FB00E815EB08054FF00008B7
:10CE200048EB0808E2FB005816EB08064FF0000834
:10CE300048EB0808E3FB006817EB08074FF0000811
:10CE400048EB0808E4FB007806EE109A11EE900A11
:10CE50004FF00009E1FB00A91BEB090B4FF00009A3
:10CE600049EB0909E2FB00B91CEB090C4FF0000982
:10CE700049EB0909E3FB00C91EEB090E4FF000095D
:10CE800049EB0909E4FB00E913EE900A15EB0905EB
:10CE90004FF0000949EB0909E1FB005916EB0906BF
:10CEA0004FF0000949EB0909E2FB006917EB09079C
:10CEB0004FF0000949EB0909E3FB007918EB090879
:10CEC0004FF0000949EB0909E4FB008906EE90AA3E
:10CED00014EE901A01F110011EC910EE100A4FF065
:10CEE000000AE1FB00BA1CEB0A0C4FF0000A4AEB07
